:020000040000FA
:060000000217CC020A7A8F
:03001300020B36A7
:03002B0002155D5E
:03003300020CC4F8
:03003B00020B8B2A
:030053000209AFF0
:03005B000212CFBF
:030063000212F096
:03006B00020C6A1A
:03007B00020C9BD9
:10008300020A0E010020FD00020194050000000198
:100093004A1D5C1D0000621D681D000000006E1DEE
:1000A300861D8C1D921D000000000000000006004C
:1000B300041400040801FF0D0106FFFFFFFFFFFF0B
:1000C300FF0101010400E31A000000E8030000FF40
:1000D300FF5B1BE803000064006400B801A0BB0DD4
:1000E30000A0BB0D00020200F8FF0705021E040179
:1000F300051E02051E020A0A010108080103102752
:1001030002803E0102FEFFE8030A050001FFFF0132
:100113000A1401E0C503423F1A51123FF304B53FED
:100123000000803E010105030101FF0F10FEFF9354
:100133003F000000002B3F00000000FF000000FF15
:1001430000C082C083E9FA5407F8748D28F582E46D
:100153003483F583E0F879006022EAC4540F540332
:10016300600814600914600D8012E5808002E59038
:100173005870078007E5A0586002790102026DC03C
:1001830082C08312027240047800800312032AE8BB
:10019300F4FCEB600814601214601C802BEA600509
:1001A300E842808023EC5280801EEA6005E842909A
:1001B3008016EC52908011E8C39420500BEA60053E
:1001C300E842A08003EC52A002026DC082C08312F9
:1001D300027240047800800312032AE8F4FCE870FA
:1001E3000302026DEB600814602C146050807BECFA
:1001F30052F374016A601274026A601574046A70BF
:1002030003E8428FE842FD806153F7DFEC528F80B1
:10021300F343F72080F6EC52F474016A601274021F
:100223006A601574046A7003E842F6E842FE803A95
:1002330053F7BFEC52F680F343F74080F6E8C394DC
:10024300205027EC52F574016A601274026A60153B
:1002530074046A7003E842F7E842FF800D53F77FA6
:10026300EC52F780F343F78080F6D083D08222E903
:10027300C4540F5403FB743F59C394302274F812CF
:100283000EC0E9C4540F5403FE743F59C394304065
:10029300047800800312032AE8F4FBE86077EE6039
:1002A3000814602B14604E806CEB52F352FD740102
:1002B3006A600F74026A600F74046A7058E8428FB0
:1002C300805353F7DF800343F720EB528F8046EBD5
:1002D30052F452FE74016A600F74026A600F740470
:1002E3006A7032E842F6802D53F7BF800343F7402C
:1002F300EB52F68020E8C39420501AEB44E0FB5203
:10030300F552FF74016A601274026A601574046A1C
:100313007003E842F77F0102125053F77FEB52F765
:1003230080F343F78080F6E95407FC748D2CF58243
:10033300E43483F583E0F822C082C0831202724062
:10034300047800800312032AE8F4FCE86038EB60C9
:100353000814601214601C802DEA6005E842FD80D9
:1003630025EC52FD8020EA6005E842FE8018EC523D
:10037300FE8013E8C39420500DEA6005E842FF8035
:100383000574E04C52FF02026DC082C083120272F8
:1003930040047800800312032AE8F4FCE8603FEB92
:1003A30060081460151460228034EA6005E8428016
:1003B3008003EC5280E842FD8024EA6005E8429025
:1003C3008003EC5290E842FE8014E8C39420500E60
:1003D300EA6005E842A08003EC52A0E842FF020273
:1003E3006D743F59C394305042E9C4540F540360B1
:1003F30007146013146020227801E8F4FBEA6024F8
:1004030014601814601922740F59C39404500478AB
:100413000280E7780480E3780880DFE8428C22E5F5
:100423008C586004EB528C22E8428C221217DC6059
:100433001D1217EB7005191919801A12166D701F0A
:10044300121645C37003E6673319191940071818C4
:10045300182208080874FFF618F618F618F6221280
:1004630016456017121891702192F012189A70199C
:10047300501720F014080808090909E7F61819E7C6
:10048300F61819E7F61819E7F62212189A60E6E843
:1004930069701F0808E62480F608E436F618547FCE
:1004A300B47F0CE654806007F6E418F618F62218B9
:1004B3001822E9C6CC08C6CD08C6CE08C6CFC0E010
:1004C300E8C0E0EAC0E0EBC0E009E9F809E7FA09AF
:1004D300E7FBE6F918E6F8C3EC98ED99EE9AEBC260
:1004E300E7F5F0EFC2E795F0500E600CEBCFFBEAB7
:1004F300CEFAE9CDF9E8CCF8EAA2E7D2E7FAEB3392
:10050300FB13F5F0EEA2E7D2E7FEEF33FFC5F013DE
:10051300A2E730E601B313C5F0C3C0E0C0F07F002B
:10052300C39BFB605E9418600F401D14601AD0E0FB
:1005330023F9D0E0F80206108AF0E9486003D2F00C
:10054300E4AFF0FAF9F8803BEB30E40D89F0EA60B0
:1005530003D2F0E4AFF0F9CAF8EB30E30D88F0EF23
:100563006002D2F0AFF0E4CAC9F8EB54076014FBA1
:10057300C3EA13FAE913F9E813F8EF135002D2E0D0
:10058300FFDBEDD0E0C0E030E739C3E49FFFF5F0D7
:10059300EC98FC42F0ED99FD42F0EE9AFE42F0D069
:1005A300E0F9D0E0F8E5F0607AE923F9EE20E742DC
:1005B300D8028067C3EF33FFEC33FCED33FDEE333A
:1005C300FE80EAEC28FCED39FDEE3AFED0E023F99B
:1005D300D0E0F84002801BC3EE13FEED13FDEC13D5
:1005E300FCEF135002D2E0FF08B800067F7F74FFD0
:1005F300802EEF3350178CF020F00260100CBC00FB
:100603000C0DBD00080EBE000408E860DFE933E806
:1006130013FFEE2313FE4F4D4C8008E95480FFE493
:10062300FEFDFCEE33EF33F47004FCFD7E80D0E07E
:10063300FBD0E0FAD0E0F8D0E0CFC618CEC618CD94
:10064300C618CCC6F9221217DC7004181818221227
:1006530017EB700D74FFF61819F61819F61819F63A
:1006630022E7548066F612189A700F12189170F0F0
:1006730014F608F608F608F680D1121891700CF6F5
:1006830008F608768008E6447F80EC121648700C62
:1006930012167060BFE65480F6E480BB12167070C9
:1006A3000519191980A5E869700C763F187680182A
:1006B300F618F6E8F922E6CDC0E018ECC0E0E63320
:1006C300CD33CDD313F6E719FCE7191933CC33C374
:1006D300947F400ECD9D502408E65480F6E418F62E
:1006E300800FF4043D14501408E6447FF618768016
:1006F300E418F618F6D0E0FCD0E0FD22CCD313CCFE
:10070300FD18E4C6CBC0E018E4C6CAC0E00808ED93
:1007130008C633E613F618E433C675F003C3CA9765
:10072300CA09CB97CB199C40047D08802EBD0003DA
:100733000207F216B6FF050606081618C3CA33CA1F
:10074300CB33CB33CA27CA09CB37CB193CC37D087C
:10075300803E187D0820E75CC633C6CA33CACB3354
:10076300CB33DDF1D5F0EB30E77BCA97CA09CB97E2
:100773004ACB199C406F4B7025E620E02180661818
:100783007D08C3CA97CA09CB97CB199CD3C633C676
:10079300CA33CACB33CB3350C9DDE7D5F0E1D3E459
:1007A300C636C608C636C608C636C608C636C6180E
:1007B30018188031C3CA97CA09CB97CB199CB34089
:1007C30097C633C6CA33CACB33CB33DD34D5F02E09
:1007D300C6A2E0C640C8CA27CA09CB37194A70BEA9
:1007E300CB3CB480B90808E63308E633601F181819
:1007F30018D0E0FAD0E0FBD0E0FCD0E0FD22187D79
:1008030008CA27CA09CB37CB193CD3808013F61803
:10081300E4B67F11F618B6FF0EF618C60470D208B8
:1008230008768080CAF618F618F680C5001217DC21
:10083300604F1217EB6012E7548066F612166D7064
:1008430011121891703B090909F4F618F618F618F5
:10085300F622121645701512189A08080860EAE67F
:10086300447FF618768018E4F618F62212189A6078
:10087300161218917012E4F608F608F608E654808A
:10088300F609090918181822EAC0E0EBC0E0ECC029
:10089300E0EDC0E0E687F0A4FBACF008E687F0A447
:1008A3002CFCE435F0FA1809E687F0A42C4B60021F
:1008B3007401CA35F0FCE433FB09E687F0D2F7A4F0
:1008C3002CCB35F0FC1908E687F0A42BCC35F0FBD4
:1008D300E433FD0819E687F0D2E7A42C4ACB35F0C0
:1008E300CD3400FC09E687F0D2E7A42DCC35F0FD2A
:1008F300E433FA0918E687F0D2F7A42CCD35F0CA11
:100903003400FC08E687F0D2E7D2F7A42ACC35F00E
:100913007A7E20E70B0ACB33CBCD33CDCC33CC332C
:10092300CB3350147004ED30E00ED2F1E4CD3DCD65
:10093300CC3CCC3B5005DA05C2F1EB547FC63308FF
:10094300E63392F0FBE73309E733C39A502D2B705C
:10095300190C0D4C4D70151806E608C333700D20A5
:10096300F10AA2F013F6E418800B4024E4F630F009
:1009730002768018F618F618F68024D33B1450102C
:1009830074FFA2F013F6187680E418F618F6800FB9
:10099300A2F013F618E63303F618ECF618EDF6D0CA
:1009A300E0FDD0E0FCD0E0FBD0E0FA22C0E074F13F
:1009B300120F26A2AFE433F509D2AF85A708AFA182
:1009C300EF5508FE74105E6006121A3275A1EF74BB
:1009D300085E6008121A3875A1F78024EFA2E0922E
:1009E300F0E508A2E082F05017906198E0F89005D6
:1009F30004E0C398A2D265D0335002E8F075A1FE9B
:100A0300E509A2E092AF7F02020F85C0E074F21203
:100A13000F26A2AFE433FED2AF9061A4E0F8759B3A
:100A230000E59158540860087591F7121A808023E5
:100A3300E59158541060087591EF121A868014E5F9
:100A430091A2E092F0E8A2E082F05007E0C2E0F069
:100A5300121BD09061A3E0F8E5E9585404600E122C
:100A63001BA675E9FB906193E0A2E640F2EEA2E0DB
:100A730092AF7F01020F85C0E074F2120F26A2AF7E
:100A8300E433FED2AF9061A5E0F8E5BF58540460AB
:100A93000675BFFB121BE880D4C3E498F8E499F908
:100AA300120ADD8026C3E49AFAE49BFBE920E7E916
:100AB300120ADDE498F8E499F922C3E498F8E4997A
:100AC300F9120ADDE498F8E499F9C3E49AFAE49B8D
:100AD300FB22EB20E7CFE920E7E0B90010BB0008D9
:100AE300E88AF084F8AAF022E4FBC8FA22EB702229
:100AF3007B10C833C8C933C9335007C39AC3DBF269
:100B030080069A50012ADBEAC833F4C8C933F4C912
:100B1300FA2275F008E4C833C8C933C933C99AC97E
:100B23009B5004C92AC93BD5F0ECFBC833F4C8E495
:100B3300C9FA22C0E0C0D0E8C0E0E9C0E0C082C08A
:100B430083A8C1E8C0E09004B1E0F8743028F582CE
:100B5300E43404F583D0E0F09004B0E0F8A3E06857
:100B63007006E5959004B3F09004B1E004F0C394EB
:100B7300804002E4F0A374C6F0D083D082D0E0F9C1
:100B8300D0E0F8D0D0D0E032C0E0C0D0E8C0E0E997
:100B9300C0E0C082C0839004F4E0F8A3E06870086A
:100BA300539AFBA374018022C2E99004F4E0F87421
:100BB3000128F074B428F582E43404F583E0F5C128
:100BC3009004F4E0C394404002E4F080AC120C1BA8
:100BD30030F039120C608034120C1B20F01430E713
:100BE3002B74FFFCFBFA747F8022E4FCFBFA748015
:100BF300801AB48008BC00F2BB00EF800F50EBF901
:100C0300E4C39AFAE49BFBE49CFCE499C6CC18C6C3
:100C1300CB18C6CA18C6F922E4C9C608CAC608CB87
:100C2300C6D3330308CCC63392F0C3947F402E94CB
:100C3300184019C9B90704CACBCC225025C309CA25
:100C430033CACB33CBCC33CC33D9F422F4600DC9C4
:100C5300CCC313CB13CBCA13CAD9F6CC22E4FCFB07
:100C6300FA2214FCFBFA22C0E074F2120F26A2AFA0
:100C7300E433FED2AF9006ABE05589600FE589FA05
:100C83007900121EAC9006ABE0F45289C2C5EEA205
:100C9300E092AF7F01020F85C0E074F2120F26A22B
:100CA300AFE433FED2AF9006ACE0558A600FE58A1D
:100CB300FA7901121EAC9006ACE0F4528AC2EB80C2
:100CC300CDC0E074F2120F26A2AFE433FED2AF9090
:100CD30006ADE0558B600FE58BFA7902121EAC90DE
:100CE30006ADE0F4528BC2E880A4080808EAC0E02D
:100CF300EBC0E086F0E7A4FA180986F0E7A42AFA25
:100D0300180986F0E7A42AFA180986F0E7A42AFA54
:100D13001986F0E7A4FBE5F02AFA190886F0E7A4A0
:100D23002BFBE5F03AFA190886F0E7A42BFBE5F074
:100D33003AFA18180986F0E7A4C5F02BFBE43AFA4F
:100D43001908E7C5F0C6A426F6E5F03BFBE43AFA3A
:100D53001886F0E7A4F6E5F00826F6E43B08F6E487
:100D63003A08F6D0E0FBD0E0FA22080808E630E7BC
:100D7300111216A9120D85080808C64480C6181852
:100D83001822181818E9799EC608CAC608CBC608DF
:100D9300CCC6C370207996CACBCC7019798ECBCCD4
:100DA30070137986CC700EF9802ACA33CACB33CB41
:100DB300CC33CC331930E7F2CCCBCA3350147004A4
:100DC300EA30E00DE4CA3ACACB3BCBCC3CCC500270
:100DD30009C3E913C6CC182313C6CB18C6CA18C651
:100DE300F922E4CFC0E0E4CEC0E0E4CDC0E0E4CC3F
:100DF300C0E075F020E626F608E633F608E633F69B
:100E030008E633F6181818EC33FCED33FDEE33FE29
:100E1300EF33FFC3EC9709ED9709EE9709EF9719A5
:100E23001919400FFFEC97FC09ED97FD09EE97FEAA
:100E3300191906D5F0BFECF709EDF709EEF709EF3D
:100E4300F7191919D0E0FCD0E0FDD0E0FED0E0FFA7
:100E5300222518C582C0E0E51934FFC583C0E0E54B
:100E630018C3958224F810AF0885831985821880EA
:100E730008858319858218D2AFCEF0A3E520F0A3AD
:100E83007808E608F0A3DEFAEFF0A3E58124FAF888
:100E9300E608F0A3E608F0A3E608F0A30808E608CE
:100EA300F0A3E608F0A315811581D0E0FED0E0F8A9
:100EB300158115811581E8C0E0EEC0E0222518C533
:100EC30082C0E0E51934FFC583C0E0E518C395820D
:100ED30024F910AF08858319858218800885831942
:100EE300858218D2AFCEF0A3E520F0A37808E608F8
:100EF300F0A3DEFAEFF0A3E58124FBF8E608F0A304
:100F0300E608F0A30808E608F0A3E608F0A31581B5
:100F13001581D0E0FED0E0F815811581E8C0E0EE40
:100F2300C0E022C0D02518C582C0E0E51934FFC552
:100F330083C0E0E518C3958224F310AF08858319B5
:100F43008582188008858319858218D2AFC8F0A3DB
:100F5300E9F0A3EAF0A3EBF0A37908E709F0A3D83B
:100F6300FAECF0A3EDF0A3EEF0A3EFF0A3D0E0F0E2
:100F7300A3D0E0F0A3D0E0F0A3E520F0A3E5F0F0E8
:100F8300A322851983851882E0C0E0A3E0F9A3E0DA
:100F9300FAA3E0FBA37808E0F608A3DFFAE0FCA3DA
:100FA300E0FDA3E0FEA3E0FFA3E0C0E0A3E0C0E018
:100FB300A3E0F5D0A3E0F520A3E0A3F5F010AF087C
:100FC3008583198582188008858319858218D2AF95
:100FD300D082D083D0E0F8D0E0321216AC181818C3
:100FE300120DE512177B1919192212177B191919FA
:100FF300080808E618181820E7E0120DE51216ACE9
:1010030018181822090909E719191920E7DC080833
:1010130008E618181820E703020DE51216AC181895
:1010230018120DE51216AC18181812177B19191996
:101033002212187CB90003021073E49003D978518B
:10104300791B8002F0A3D8FCD9FA7A297B1E900081
:101053008678BF79018015E493A3AD82AE838A823B
:101063008B83F0A3AA82AB838D828E83D8E9D9E7E1
:101073007582A27583C274071214D4758264758352
:101083003974001214D4E4730575F0108E1A8F1B93
:1010930085821F85831E851882851983E0CEA3E090
:1010A300CF851F82851E83EBC9EAC8EDCBECCAC38B
:1010B300E833C8E933C9EA33CAEB33CBC3EA9EF555
:1010C3001DEB9FF51CB35004AB1CAA1DEC33CCEDF8
:1010D30033CDD5F0DAAE1AAF1B221217DC601C1227
:1010E30017EB601712189A70071218917001D32228
:1010F300C0D01218917006D0D0B322C32233D0D0FF
:10110300501430E0F6C3E7960809E7960809E79616
:101113000809E796B32220E0D5E6970809E6970881
:1011230009E6970809E697B3221217DC601B12172A
:10113300EB601612189A7007121891600CB322C054
:10114300D01218917005D0D022C32233D0D05013BF
:1011530030E0EBC3E7960809E7960809E796080924
:10116300E7962220E0E4E6970809E6970809E69760
:101173000809E69722D083D082ECC0E0EDC0E0E41A
:1011830093A3FCE493A3FDED4C600D121290EC24A9
:10119300FFFCED34FFFD80EFE493A3FCE493A3FD98
:1011A300ED4C600D121397EC24FFFCED34FFFD8032
:1011B300EFD0E0FDD0E0FCE493A3C0E0E493C0E013
:1011C30022D083D082E9C0E0E493A3C386F0C5F0C4
:1011D30095F0F908E493A386F0C5F095F0700BE45D
:1011E30093A3C3994005E9048002A3E475F002A424
:1011F3002582F582E5F03583F583D0E0F9E493A306
:10120300C0E0E493C0E022851983851882E0A3FE41
:10121300E0A3F5207808E0A3F608DFFAE0A3FFE0F7
:10122300A3C0E0E0A3C0E0E0A3C0E0E0A3C0E0E02F
:10123300A3C0E010AF0885821885831980088582D2
:1012430018858319D2AFD083D0820214DA8519832B
:10125300851882E0A3FEE0A3F5207808E0A3F60852
:10126300DFFAE0A3FFE0A3C0E0E0A3C0E0E0A3C097
:10127300E0E0A3C0E010AF088582188583198008D9
:10128300858218858319D2AFD083D08222C0E0C370
:10129300E49396087401939618400FE493667008DC
:1012A30008740193661870007019A3A3C3E493969E
:1012B300087401939618A3A3400DD0E0D0E0D0E0CA
:1012C3000211B4A3A3A3A3A3A3D0E022C0E074F2AA
:1012D300120F26C2D9901E62E0C39400A2D265D039
:1012E300334005E0F91222847F01020F85C0E074C8
:1012F300F2120F26C2DC901E64E0F9C39400A2D25E
:1013030065D033400312228480DE740480047402A7
:101313008000CCC0E0EDC0E0E518C39CCCAD195013
:10132300011D10AF068C188D1980068C188D19D2EB
:10133300AF121456D0E0FDD0E0FC2274028000CC42
:10134300C0E0EDC0E0E518C39CCCAD1950011D1001
:10135300AF068C188D1980068C188D19D2AF121414
:1013630012D0E0FDD0E0FC221217DC60251217EB4F
:10137300602012189A7003021891080808E7667033
:10138300101819E766700A1819E76670041819E748
:101393006622F422C0E0C0F088F0E4936670080887
:1013A30074019366187000A8F0A3A3700BD0F0D05B
:1013B300E0D0E0D0E00211B4A3A3D0F0D0E022D07B
:1013C30083D082CCC0E0E493A36006121477147038
:1013D300FAE493A360061215DA1470FAD0E0FCE481
:1013E30093A3C0E0E493C0E022C008C3E096F508ED
:1013F30008A3E096420808A3E096420808A3E096F3
:101403004208A2D265D033E5087001D3D00822CABE
:10141300C0E0E493A3C582CCC582C583CDC583F068
:10142300A3C582CCC582C583CDC583DAE5D0E0CA26
:1014330022A2E792D65002F40430F70663F0FF05C8
:10144300F0B3400384800384F40430D60563F0FFD3
:1014530005F022CAC0E0E0A3C582CCC582C583CD16
:10146300C583F0A3C582CCC582C583CDC583DAE627
:10147300D0E0CA22C0E0E493A3D39C5010E493A32A
:10148300C39C400AD0E0D0E0D0E00213DFA3A3A3C3
:10149300D0E0227009080808226016181818C6C37D
:1014A30033C608C633C608C633C608C633C6D5E036
:1014B300EA22C008C3E096F50808A3E096420808AC
:1014C300A3E096420808A3E09645087001D3D0082C
:1014D30022C09FF59FE473D09F22D083D082C09F08
:1014E300E493C0E0740193C0E0740293F59F227407
:1014F30004800A74038006740280027401C0E0F45D
:1015030004121528D0E01218272200C0D025181085
:10151300AF08F518500C05198008F5185002051985
:10152300D2AFD0D0222518F58210AF08F518400CA1
:1015330015198008F51840021519D2AF85198322B1
:10154300BB0102E722C082C08389828A83BB000376
:10155300E08002E493D083D08222C0E0C0D0E8C010
:10156300E0A8A8D2AFC2C7E8A2E792AFD0E0F8D014
:10157300D0D0E0326017080808C6A2E713C618C621
:1015830013C618C613C618C613C6D5E0E9226016DB
:10159300080808C6C313C618C613C618C613C61848
:1015A300C613C6D5E0EA22C3E0C696F608A3E0C692
:1015B30096F608A3E0C696F608A3E0C696F622259B
:1015C30018F8E43519F9222518FAE43519FB222510
:1015D30018FCE43519FD22C0E0E493A36C7009D034
:1015E300E0D0E0D0E00213DFA3A3D0E0222518105F
:1015F300AF08F518400C15198008F51840021519A5
:10160300D2AF22E76670100809E766700A0809E797
:101613006670040809E76622C3E09608A3E096080B
:10162300A3E09608A3E096A2D265D03322E06670C9
:101633001008A3E066700A08A3E066700408A3E03C
:101643006622191919E70947097009E7270970057F
:10165300E733F4220922C3E096F008A3E096F008EA
:10166300A3E096F008A3E096F022181818E60846BF
:10167300087009E626087005E633F4220822C3E45D
:1016830093960874019396087402939608740393CF
:101693009622C3E697F60809E697F60809E697F651
:1016A3000809E697F622181818E4C396F608E49694
:1016B300F608E496F608E496F622E493F608740135
:1016C30093F608740293F608740393F622E667F61A
:1016D3000809E667F60809E667F60809E667F622E9
:1016E300E056F608A3E056F608A3E056F608A3E092
:1016F30056F622E657F60809E657F60809E657F6BE
:101703000809E657F622E627F60809E637F6080938
:10171300E637F60809E637F622E026F608A3E036B0
:10172300F608A3E036F608A3E036F622E026F00832
:10173300A3E036F008A3E036F008A3E036F022E693
:1017430047F60809E647F60809E647F60809E647B3
:10175300F622700422600D18C6C333C608C633C60A
:10176300D5E0F41822E056F008A3E056F008A3E011
:1017730056F008A3E056F022E4C397F709E497F77D
:1017830009E497F709E497F722600D08C6A2E71367
:10179300C618C613C6D5E0F322C6F4C608C6F4C6F7
:1017A30008C6F4C608C6F4C622C3E09608A3E096AA
:1017B30008A3E09608A3E09622C3E7960809E796F4
:1017C3000809E7960809E7962275D00075813F75E9
:1017D30018D975190300021034E6084608C31346E6
:1017E30008336002E633F422E7094709C3134709C4
:1017F300336002E733F422600C08C6C313C618C66D
:1018030013C6D5E0F422E6F008A3E6F008A3E6F059
:1018130008A3E6F022E0F608A3E0F608A3E0F60842
:10182300A3E0F622CAC0E0E6F0A308DAFAD0E0FAB1
:1018330022E0FCA3E0FDA3E0FEA3E0FF22EAF0A385
:10184300EBF0A3ECF0A3EDF022E0FAA3E0FBA3E0BE
:10185300FCA3E0FD22E8F0A3E9F0A3EAF0A3EBF098
:1018630022ECF0A3EDF0A3EEF0A3EFF022E0F8A357
:10187300E0F9A3E0FAA3E0FB22E5C754F84401F53D
:10188300C77901222518F582E43519F58322E72764
:1018930019471947194722E62618461846184622BB
:1018A300C2AF75D69F020000221214DD1EFE06127F
:1018B30014DD7AFE061214DDD2FE061214DD59FF82
:1018C300061214DD95FF061214DD54DE071214DD33
:1018D30064DE071214DDAA99071214DD0D9A0712AC
:1018E30014DD5C9A071214DD899A071214DDDF9A5E
:1018F300071214DDB5DD071214DD747D001214DD4B
:10190300BE7D001214DD547E001214DDDA7E001257
:1019130014DD0B7F001214DD237F001214DD977F8B
:10192300001214DDAD7F001214DDC07F001214DD40
:10193300CA7F001214DD0080061214DD5A850612D8
:1019430014DD8C85061214DDB885061214DD458678
:10195300061214DD2C88061214DDA4D7051214DD3B
:1019630010D8051214DDC0D8051214DD8BD9051269
:1019730014DDE1DA051214DDCFDB051214DDD6DC4C
:10198300051214DDD4DE051214DD07DF051214DDA4
:1019930071DF051214DD98DF051214DD15E1051260
:1019A30014DD99E1051214DDADE1051214DD23E226
:1019B300051214DD44F7021214DDBBF9021214DD23
:1019C3001CFB021214DD23FD021214DD1CEF0612B0
:1019D30014DD48EF061214DDB9F1061214DDF9F136
:1019E300061214DD39F2061214DD4DF2061214DD6F
:1019F30066F2061214DD57F3061214DDFCF3061229
:101A030014DD10F4061214DDF3CD071214DD17CE26
:101A1300071214DD30CE071214DD62CE071214DD77
:101A230092CE071214DDBFCE071214DD21CF0712A9
:101A330014DD30CF071214DD3ACF071214DD47CF80
:101A4300071214DD45B7071214DD65B7071214DD5D
:101A5300A4B7071214DDBFB7071214DDDEB70712F0
:101A630014DD44B8071214DD4DB8071214DDAAB80B
:101A7300071214DDCEB8071214DD8FB9071214DD77
:101A83009CB9071214DDADB9071214DDA4DC0712EB
:101A930014DDBCDC071214DDE8DC071214DD428020
:101AA300071214DD9C81071214DDAA81071214DDCD
:101AB300BD81071214DDD281071214DDE7810712FD
:101AC30014DDFA81071214DD6E82071214DDD3824E
:101AD300071214DD7583071214DD3984071214DD30
:101AE3004984071214DD5884071214DD10FF031212
:101AF30014DD34FF031214DD5CFF031214DD84FFD5
:101B0300031214DD84BE071214DDABBE071214DD0D
:101B1300C9BE071214DD3CBF071214DD72B40712ED
:101B230014DD8BB4071214DD97B4071214DDABB4C4
:101B3300071214DDC9B4071214DDD3B4071214DD80
:101B4300DDB4071214DDF0B4071214DD76B5071205
:101B530014DDEBB5071214DD1AB6071214DD68B6EF
:101B6300071214DDB7B6071214DDD2B6071214DD5F
:101B7300DCB6071214DDEDB6071214DD30B7071219
:101B830014DDB1FF031214DD84F6051214DDAEF685
:101B9300051214DDCBF6051214DDDEF6051214DD95
:101BA300F4F6051214DD52F7051214DD8AF7051257
:101BB30014DD7EFB051214DDC3FC051214DDF6FCF7
:101BC300051214DD59FD051214DDB9FE051214DDED
:101BD300E1FE051214DDF6FE051214DD06FF051203
:101BE30014DD4AFF051214DDA5FF051214DDB5FF50
:101BF300051214DD88D4071214DDA2D4071214DDF4
:101C0300CAD4071214DDE3D4071214DD07D5071273
:101C130014DD25D5071214DD3CD5071214DD6AD572
:101C2300071214DD85D5071214DDEBDC071214DD72
:101C3300FDA4071214DD0DA5071214DD12A6071269
:101C430014DD44A6071214DD6AA6071214DD8DA65F
:101C5300071214DDA4A6071214DDDEA6071214DD95
:101C630043A7071214DD85A7071214DDC4A70712C3
:101C730014DDF5A7071214DD2CA8071214DD8FBCA1
:101C8300061214DD65BD061214DD90BD061214DDC7
:101C9300ADBD061214DDA8BE061214DDEABE06129F
:101CA30014DD58BF061214DDAABF061214DD12C0DC
:101CB300061214DDF4C0061214DDCDC1061214DDC4
:101CC3009F9D071214DDF49D071214DD469E071233
:101CD30014DD879E071214DD9A9E071214DDD29E2F
:101CE300071214DD399F071214DDCF9F071214DD8D
:101CF30017A5061214DD42A5061214DD0DA6061261
:101D030014DD54A6061214DDE5A6061214DD5EAA40
:101D1300061214DDD1AB061214DDF5AD041214DD89
:101D230035AE041214DD34B0041214DD5AB00412BB
:101D330014DD55B3041214DD91B4041214DD24B878
:101D4300041214DD8EB8041214DD28B9041214DD54
:101D53007BB9041214DDE3B9041214DD33BA04129F
:101D630014DD65BA041214DD68BA041214DD78BAFE
:101D7300041214DD8ABA041214DDCFBA041214DD7E
:101D83008CBC041214DDF9BC041214DD44BD04122E
:101D930014DDE0BD041214DD6CBE041214DD5CC05E
:101DA300041214DD03C2041214DDA2C2041214DDF2
:101DB300B9C4041214DD97C5041214DD4BC7041211
:101DC30014DDF3D1071214DD0DD2071214DD4FD247
:101DD300071214DD82D2071214DD9CD2071214DD20
:101DE300B5D2071214DDE8D2071214DD0AD30712A5
:101DF30014DDAACE061214DDDBCE061214DD2FCFBE
:101E0300061214DDFFCF061214DD35D0061214DDE1
:101E130062D0061214DDB4D0061214DDD2D006123D
:101E230014DDF6D0061214DD78D1061214DD02D2C9
:101E3300061214DD33D2061214DD79D2061214DD34
:101E430097D2061214DDC5D2061214DDE9D20612AA
:101E530014DD1FD3061214DD7ED3061214DDA0D3C6
:101E6300061214DDFFD3061214DD38D4061214DD76
:101E730046D4061214DD519C061214DD8B9C061207
:101E830014DDCA9D061214DDFA9E061214DDF1A4B8
:101E9300061214DDD0C2061214DDB9C3061214DD16
:101EA300FAC3061214DDA9C4061214DDD8D607122C
:101EB30014DD49D7071214DDACD7071214DDC4892A
:101EC300061214DDE38A061214DDF18B061214DD0B
:101ED300388D061214DD908D061214DDD58D061291
:101EE30014DDE38D061214DD138E061214DDAA8EA3
:101EF300061214DD478F061214DD5390061214DD0B
:101F0300EB91061214DD6E93061214DD84A80712FA
:101F130014DDDFA8071214DD18A9071214DD00ABC6
:101F2300071214DDFAE9061214DD3FEA061214DD86
:101F330075EA061214DD9CEB061214DD41ED061260
:101F430014DDAEED061214DDFEEE061214DD34B31D
:101F5300051214DD38B4051214DDAEB4051214DD18
:101F63009AB5051214DDE6B5051214DD4EB9051256
:101F730014DD96B9051214DD66BA051214DDB0BA84
:101F8300051214DD19BB051214DD5EBB051214DD49
:101F9300B0BB051214DD02BC051214DD5BBC0512D7
:101FA30014DDBEBC051214DD2CBD051214DD81BD8C
:101FB300051214DD76BE051214DDDBBE051214DD39
:101FC300A9BF051214DDEAC7071214DD27C80712DB
:101FD30014DD4CC8071214DD68C8071214DD7DC870
:101FE300071214DD9184071214DDA085071214DD96
:101FF3004886071214DD4287071214DD6387071230
:1020030014DD7D87071214DD1F88071214DD508845
:10201300071214DDD088071214DD7993061214DD3C
:10202300DB93061214DD6F94061214DDFE9506127F
:1020330014DD3F99061214DD5599061214DD179A23
:10204300061214DD8FCC071214DDAFCC071214DD9A
:10205300C3CD071214DDC6CD071214DD42D3071218
:1020630014DD78D3071214DD92D3071214DDD4D311
:10207300071214DDE4D3071214DD7ED4071214DD36
:1020830094B5061214DD9EB5061214DDD8B50612FA
:1020930014DD41B6061214DD5EB6061214DD00B778
:1020A300061214DD09B7061214DD4EB7061214DD4D
:1020B30077B7061214DD84B7061214DDF5B70612DE
:1020C30014DD80B8061214DDCEB8061214DD0CB987
:1020D300061214DD71B9061214DD94B9061214DD6B
:1020E3000BBA061214DD62BA061214DD9DBA06128B
:1020F30014DDD2BA061214DDE4BA061214DDF6BA00
:10210300061214DD15BB061214DD1EBB061214DD08
:10211300D9BB061214DD25BC061214DD63BC0612FE
:1021230014DD51CF071214DD91D0071214DDE3FF44
:10213300061214DDAAAB071214DDEEAB071214DD91
:1021430036AC071214DD1CAE071214DDABAE07125A
:1021530014DD7EFF041214DD0080051214DD2481DA
:10216300051214DD5E81051214DD0883051214DDEA
:102173003283051214DDA785051214DDE7850512E8
:1021830014DD7D87051214DD1A88051214DD6C88B1
:10219300051214DD0F89051214DD4789051214DDBC
:1021A3008989051214DDF88A051214DD468C05129F
:1021B30014DD778E051214DDA58E051214DDCC8E89
:1021C300051214DDD58E051214DD258F051214DDDD
:1021D300B78F051214DDE692051214DD699305121B
:1021E30014DDDD7F001214DDF37F001214DDAA91EC
:1021F300071214DDC091071214DD6492071214DD77
:10220300A392071214DDC092071214DDF192071294
:1022130014DD3E93071214DD7193071214DDAC93A2
:10222300071214DDA195071214DD74D4061214DD10
:102233001AD6061214DD5BD7061214DD73D7061205
:1022430014DD528D071214DD898E071214DDE88F19
:10225300071214DD94AD061214DDBDAE061214DDB3
:10226300BCAF061214DD00B1061214DD1FB2061254
:1022730014DDF1B2061214DDA7C0071214DD75C117
:10228300071214DDB693051214DD7B94051214DDD9
:102293008694051214DD2F95051214DD8E95051213
:1022A30014DD8A97051214DDFA97051214DDFF99E0
:1022B300051214DD389A051214DDDE9C051214DDB7
:1022C300069D051214DD909D051214DD0B9E05126B
:1022D30014DD6E9F051214DDCB9F051214DD49A09A
:1022E300051214DD38A5051214DD22F9061214DDDA
:1022F30049F9061214DD57FB061214DD7EFB0612A4
:1023030014DDD3FB061214DDA1FC061214DD19FD46
:10231300061214DDDBB9071214DDF3B9071214DD5D
:10232300F2BA071214DDF9BA071214DD22BB071241
:1023330014DDEAD9071214DD49DA071214DD87DA4E
:10234300071214DDC8DA071214DD9CDF061214DD50
:10235300C2DF061214DD02E1061214DDF7E10612F4
:1023630014DD1EE2061214DDB7E2061214DD0BE3E0
:10237300061214DD26E4061214DDBFC8061214DDAE
:1023830061C9061214DD81CA061214DDD3CB06120D
:1023930014DD91CD061214DD3EF4031214DD92F424
:1023A300031214DDBCF5031214DDE8F6031214DD89
:1023B300D6F7031214DD72FA031214DD29FC03129B
:1023C30014DD74FC031214DD82FE031214DD64A118
:1023D300071214DDB7A1071214DD3AA2071214DDA8
:1023E300C6A4071214DDA2D0071214DD1CD10712F4
:1023F30014DD37D1071214DD39C6071214DD3CC7CB
:10240300071214DDA4C7071214DD82C4071214DDFA
:10241300CDC4071214DD1DC5071214DD38C507121C
:1024230014DD08CB071214DD63CB071214DD5FCC78
:10243300071214DD33BC071214DD9CBC071214DD34
:1024430012BD071214DD2DBD071214DD7FDB071249
:1024530014DDBEDB071214DD37DA061214DDADDB43
:10246300061214DDDDDB061214DDA4DC061214DD16
:102473001BDD061214DD99DD061214DD78DE06126B
:1024830014DD12DE071214DD25DE071214DDB8D5C4
:10249300071214DDC7D5071214DD27D6071214DD82
:1024A300E1FF021214DDE7FF021214DDEDFF021259
:1024B30014DD0080041214DD0C80041214DD6E8020
:1024C300041214DD7880041214DD0B81041214DD70
:1024D3004781041214DD0382041214DD16820412F0
:1024E30014DD6682041214DDD082041214DD3583F8
:1024F300041214DD6B83041214DDED83041214DD66
:102503009C85041214DD7087041214DD56880412AE
:1025130014DDA889041214DDFE8B041214DD678D0B
:10252300041214DD048E041214DDAC92041214DDC3
:102533009A93041214DD3894041214DD6494041283
:1025430014DD0095041214DD1595041214DD39957C
:10255300041214DD9F95041214DDBC95041214DDDE
:10256300E695041214DD6397041214DD84970412B4
:1025730014DD0A98041214DDB098041214DDF798E0
:10258300041214DD6A99041214DDF699041214DDA1
:102593005A9A041214DDBA9A041214DD509B0412E1
:1025A30014DDCB9B041214DDFE9B041214DD609C2E
:1025B300041214DDC29D041214DD329E041214DDD4
:1025C300E19E041214DD37A0041214DDCFA004121F
:1025D30014DD3BA1041214DD7EA3041214DD0AA54D
:1025E300041214DD35A5041214DD1BA7041214DD37
:1025F300B1A8041214DDBAA9041214DD5AA50512F8
:1026030014DD11A6051214DD18A7051214DD96A713
:10261300051214DDD8A8051214DDF9A8051214DD7E
:10262300B1A9051214DD5CAA051214DD3CAE051236
:1026330014DD58B0051214DDBFB1051214DD2FDD12
:10264300071214DDCAD6031214DD25D7031214DDD5
:10265300AFD7031214DD20D9031214DDF8D9031206
:1026630014DDE1DA031214DDF8DA031214DD4ADBB8
:10267300031214DDAEDB031214DDEFDB031214DDF2
:1026830002DC031214DD58DC031214DDB1DC031287
:1026930014DDC9DC031214DD56DF031214DDEBDF96
:1026A300031214DD15E0031214DD5EE0031214DDE2
:1026B3004EE2031214DDB8E2031214DD8CE30312BD
:1026C30014DDCFE3031214DDE9E3031214DD30E478
:1026D300031214DD52E4031214DDFCE4031214DDCF
:1026E300F4E5031214DD4EE6031214DD9FE6031234
:1026F30014DD37E8031214DDAFEA031214DD2DEB0A
:10270300031214DD5AEB031214DDCDEB031214DDB7
:10271300F0EB031214DD6AEC031214DD35ED031242
:1027230014DD72ED031214DDD4ED031214DD95EE06
:10273300031214DD98EE031214DDA2EE031214DD6E
:10274300ACEE031214DDBFEE031214DD31EF0312FE
:1027530014DD5AEF031214DD6DEF031214DD99EF4C
:10276300031214DDC0EF031214DDE4EF031214DDD2
:102773001FF0031214DD91F0031214DDB9F00312FC
:1027830014DDFAF0031214DD2FF1031214DD4FF1FF
:10279300031214DD8CF1031214DDC3F1031214DDF3
:1027A300C3F2031214DDF6F3031214DD0CF4031267
:1027B30014DD4CDC071214DD64DC071214DDFD7F2D
:1027C300001214DD7EF8041214DDCDF8041214DDBA
:1027D3006DFA041214DD28FC041214DD6AFC0412E1
:1027E30014DD53FD041214DD5DFE041214DD7FFEBF
:1027F300041214DDC9FE041214DD3EAF071214DD0A
:102803002ED8021214DD51D8021214DD44D902125B
:1028130014DD8DD9021214DDE5D9021214DD43DA79
:10282300021214DD8FDA021214DD05DB021214DD4D
:1028330091DB021214DD06DC021214DD49DC021204
:1028430014DD29E0021214DD78E2021214DDABE29A
:10285300021214DD22E3021214DD53E6021214DD28
:10286300C8E6021214DD53E8021214DD60E9021215
:1028730014DD76EA021214DDECEA021214DDB3EB86
:10288300021214DD1CEC021214DD1FEC021214DD23
:10289300E3FD061214DD38EE021214DDF3EF02122B
:1028A30014DD9FF1021214DD91F2021214DD21F303
:1028B300021214DD75F4021214DD97F5021214DD11
:1028C300EEF5021214DD8BF6021214DD07E3041297
:1028D30014DDA7E3041214DD11E4041214DDB8E4DB
:1028E300041214DD17E5041214DDC3E5041214DD2C
:1028F3006CE8041214DD92E9041214DD16EA0412E2
:1029030014DDF3EB041214DD98EC041214DD3BED3B
:10291300041214DD9AED041214DD53EE041214DDD7
:10292300D2EF041214DD8FF1041214DD10F304123C
:1029330014DD6AF4041214DD7AF5041214DD20F6B2
:10294300041214DD3FF7041214DD86C8041214DDEB
:10295300FEC8041214DD46C9041214DD8AC9041228
:1029630014DDD3C9041214DD1DCA041214DD52CAC6
:10297300041214DDD0CA041214DD2ACB041214DDB0
:1029830083CC041214DD02CD041214DD19CE04121B
:1029930014DD3BCE041214DD47CF041214DD58CFEF
:1029A300041214DD70CF041214DD90D0041214DD70
:1029B300ADD0041214DD80D1041214DDA4D10412AD
:1029C30014DDBBD1041214DDDCD1041214DDFED1FD
:1029D300041214DDF0D2041214DD48D3041214DD02
:1029E300BED4041214DD1CD5041214DD3BD504122D
:1029F30014DD6DD6041214DDEAD6041214DD57D7A4
:102A0300041214DD97D7041214DDF9D7041214DD70
:102A1300A9D8041214DD7BDA041214DD66DB041278
:102A230014DD60DC041214DD66DD041214DD82DEC5
:102A3300041214DD90DE041214DD69DF041214DDC8
:102A430009E0041214DD4DE0041214DD62E0041207
:102A530014DD73E1041214DD16E2041214DD6EE2D8
:102A6300041214DDA4B1071214DDDDB2071214DD64
:102A73009AB3071214DDFEB3071214DDAE950712E5
:102A830014DDCC95071214DD1096071214DD36966B
:102A9300071214DD5C96071214DD7496071214DD19
:102AA3008C96071214DDA496071214DD07970712FC
:102AB30014DD4997071214DD6B98071214DD74981F
:102AC300071214DD7D98071214DD8698071214DDB2
:102AD3009098071214DDB198071214DDF8880712D5
:102AE30014DDD88C071214DDE68C071214DDEB8C91
:102AF300071214DD0FC3071214DDEBDB071214DD1D
:102B0300D0FF011214DD7CC9071214DD36DE071273
:102B130014DD0080021214DD5780021214DDC3801D
:102B2300021214DD4F81021214DD0582021214DD3C
:102B33004D82021214DD6682021214DD89820212B2
:102B430014DDAB82021214DDE982021214DD388334
:102B5300021214DD6383021214DDC183021214DD39
:102B63006884021214DD1085021214DD8C850212B2
:102B730014DD5986021214DDA086021214DDEC86E0
:102B8300021214DD7487021214DDAD87021214DD04
:102B93000388021214DD1F88021214DD4E8802120C
:102BA30014DD5A8A021214DD888B021214DDB48BF1
:102BB300021214DDE88B021214DD098C021214DDFB
:102BC300188C021214DD238C021214DDD28C021233
:102BD30014DD428D021214DDCD8D021214DDD58D6C
:102BE300021214DD428E021214DD7E8E021214DDF7
:102BF300448F021214DD1790021214DD6C9002123E
:102C030014DD0B91021214DD6591021214DDAA91F9
:102C1300021214DD4394021214DD8695021214DDB0
:102C23007098021214DD5499021214DD389A0212BC
:102C330014DD499A021214DDBB9A021214DD529B71
:102C4300021214DDB79B021214DDA79C021214DDDD
:102C5300CC9C021214DDEA9C021214DD069D0212C2
:102C630014DD799D021214DD889D021214DD109E7D
:102C7300021214DD0D9F021214DD1A9F021214DDDD
:102C8300239F021214DD05A1021214DD27A20212F2
:102C930014DD37A2021214DD65A3021214DDE4A3CE
:102CA300021214DDFFA4021214DD3BA5021214DD8F
:102CB30015A7021214DDD2AA021214DDE6AA02122B
:102CC30014DDF0AA021214DDFAAA021214DD04AB19
:102CD300021214DD1DAB021214DD27AB021214DD48
:102CE30094AB021214DD9FAB021214DDC7AB0212C8
:102CF30014DDD2AB021214DD37AC021214DD42AC88
:102D0300021214DD66AC021214DD8AAC021214DD69
:102D1300FCAC021214DD45AD021214DD61AD0212EA
:102D230014DDD2AD021214DD1EAE021214DD67AE45
:102D3300021214DDA5AE021214DD26AF021214DD59
:102D4300CDAF021214DD9CB1021214DD01B20212E6
:102D530014DD2FB3021214DD55B3021214DD9DB43A
:102D6300021214DDD7B7021214DDD5B9021214DD35
:102D7300A0BB021214DD39BC021214DD3ABE0212EA
:102D830014DDEFBE021214DD28BF021214DD8EBF64
:102D9300021214DD98BF021214DDC1C1021214DD48
:102DA30000C3021214DD57C3021214DD02C402125F
:102DB30014DDB2C5021214DDFFC6021214DD1FC7F3
:102DC300021214DD74C7021214DD75C8021214DD79
:102DD3009DC8021214DDFCC8021214DDF4C90212EC
:102DE30014DD6BCA021214DD7ECB021214DDECCBB0
:102DF300021214DDEBCC021214DD45CF021214DDF6
:102E03006ECF021214DDD4D0021214DD56D2021298
:102E130014DDADD2021214DD5BD3021214DD00D433
:102E2300021214DD59D4021214DD17D5021214DD77
:102E3300A9D5021214DD08D6021214DD4AD60212F5
:102E430014DD7BD6021214DDD2D7021214DD00800A
:102E5300031214DD3280031214DD6B80031214DDC0
:102E63002982031214DDFF82031214DD5E83031231
:102E730014DD7484031214DDC084031214DD4E8741
:102E8300031214DD288A031214DD6F8B031214DD81
:102E9300078C031214DD138C031214DD5C8C0312F4
:102EA30014DD9E8D031214DD948E031214DDBE8E89
:102EB300031214DD148F031214DD6D8F031214DD5E
:102EC300E08F031214DD1692031214DD989303129C
:102ED30014DD8394031214DDCD95031214DD0598DC
:102EE300031214DD029B031214DD119B031214DD84
:102EF300A59B031214DD509C031214DD939C031253
:102F030014DDDC9C031214DD2C9D031214DD909D53
:102F1300031214DD029E031214DD1E9E031214DD40
:102F23004D9E031214DD8C9E031214DD879F031242
:102F330014DD36A0031214DDB3A2031214DDE5A3DE
:102F4300031214DDBDA4031214DD3FA5031214DD27
:102F530074A9031214DD81A9031214DDB0A90312AD
:102F630014DD0BAA031214DD3EAA031214DDB6AA64
:102F7300031214DDE9AA031214DD4AAB031214DDB4
:102F83009AAB031214DD67AC031214DD20AD0312F8
:102F930014DDE4AD031214DD5EB0031214DDC0B121
:102FA300031214DD11B3031214DD35B4031214DD5F
:102FB30038B4031214DD67B4031214DD5FB60312D1
:102FC30014DD1EB7031214DD4DB7031214DD6BB805
:102FD300031214DD33B9031214DDF1BA031214DD45
:102FE30023BB031214DD65BB031214DD64BC03129F
:102FF30014DDD7BC031214DD00BF031214DD5FBF61
:10300300031214DDB3BF031214DDE2C1031214DD96
:10301300C5C2031214DD81C3031214DD95C3031269
:1030230014DDA9C3031214DDD6C3031214DD06C4D1
:10303300031214DDC1C5031214DDD3C6031214DD5C
:1030430028C7031214DD71C7031214DD98C70312D6
:1030530014DD60C8031214DD06C9031214DD8CCA23
:10306300031214DDD3CA031214DD45CB031214DD9E
:103073009ACC031214DD43CD031214DD77CD031272
:1030830014DD8FCD031214DD32CE031214DDAED066
:10309300031214DD56D2031214DD74D2031214DDAD
:1030A30092D2031214DD5ED3031214DDACD60312E5
:1030B30014DDBD85011214DDF585011214DDF58AD9
:1030C300011214DD3B8B011214DD718C011214DD2E
:1030D300D68C011214DD4B8E011214DD55910112B1
:1030E30014DD7E92011214DD919C011214DD219DE9
:1030F300011214DD0BA0011214DD18A1011214DD5D
:103103007BA1011214DDC3A2011214DD31A501124A
:1031130014DDC3A6011214DD50A7011214DD6FA83C
:10312300011214DDFCA8011214DD06A9011214DD3D
:103133002EA9011214DDCEA9011214DDB9AA0112C0
:1031430014DD86AB011214DDA3AB011214DDCCAB8D
:10315300011214DDF9AB011214DD40AE011214DDCE
:103163000FAF011214DD4EAF011214DDD0AF011207
:1031730014DD71B0011214DDA3B0011214DDEAB045
:10318300011214DD1DB1011214DD61B1011214DD50
:10319300B0B1011214DDB5B1011214DD11B2011287
:1031A30014DD55B2011214DD2FB3011214DD94B3F3
:1031B300011214DDFAB3011214DD75B4011214DD2A
:1031C300DDB7011214DDE0B8011214DD5EBA01129D
:1031D30014DD74BD011214DD16BE011214DD5FC0CF
:1031E300011214DD1AC1011214DD59C1011214DDDB
:1031F30031C3011214DD4EC3011214DD57C3011292
:1032030014DD60C3011214DD6BC3011214DD8AC324
:10321300011214DD2EC5011214DD8BC5011214DD5C
:1032230095C5011214DD9FC5011214DDFEC50112FF
:1032330014DD48C6011214DD49C7011214DDA0C70D
:10324300011214DDB1C8011214DDFAC8011214DD34
:10325300B4C9011214DDCBCA011214DDA0CB0112D3
:1032630014DDE7CC011214DDEBCD011214DDE4CE45
:10327300011214DDFCCE011214DD33CF011214DD73
:103283003DCF011214DD47CF011214DD52CF0112DD
:1032930014DD70CF011214DDB8CF011214DD16D086
:1032A300011214DD3DD0011214DD4FD0011214DDE3
:1032B30004D1011214DD3DD1011214DD5FD20112DC
:1032C30014DDB2D2011214DD98D3011214DDBFD381
:1032D300011214DD2FD4011214DDABD4011214DD5D
:1032E30007D6011214DD2ED7011214DDF0D7011217
:1032F30014DDBED8011214DD7CD9011214DD64DAA9
:10330300011214DD0EDB011214DD76DB011214DD74
:103313002BDC011214DD87DC011214DDDFDC01126A
:1033230014DDA5DD011214DDC8DD011214DD83DE19
:10333300011214DDA5DE011214DD06DF011214DD16
:1033430036E1011214DD2FE2011214DDDBE201127A
:1033530014DDFCE4011214DD45E5011214DD90E5F2
:10336300011214DDECE5011214DD4AE6011214DD4D
:103373006EE6011214DD92E6011214DDC7E60112B6
:1033830014DDEFE6011214DD34E7011214DD88E7E2
:10339300011214DDE1E7011214DDDBE8011214DD93
:1033A30079EA011214DDBEEA011214DDE7EA011223
:1033B30014DD70EB011214DDE3EB011214DDF1EB0C
:1033C300011214DD15EC011214DD6BEC011214DD96
:1033D30086EC011214DD41ED011214DD6DED0112D5
:1033E30014DDB0ED011214DD13EE011214DD21F032
:1033F300011214DD4DF0011214DD08F1011214DD88
:10340300ECF1011214DD80F2011214DD3DE205122C
:1034130014DD75E2051214DD96E2051214DDD8E21F
:10342300051214DD3CE3051214DD46E3051214DD39
:1034330056E3051214DD8DE3051214DD36E705129C
:1034430014DDFEE8051214DDE2EA051214DD84EB57
:10345300051214DD0EEC051214DDBB43001214DD5E
:103463006444001214DD4345001214DD4F4600127C
:1034730014DD6F46001214DD9147001214DD41493B
:10348300001214DDAE49001214DD7F4A001214DD70
:10349300854B001214DDFD4B001214DD384C001275
:1034A30014DD914C001214DDCC4C001214DD154DCB
:1034B300001214DDA94D001214DD3F4E001214DD7D
:1034C300144F001214DDE74F001214DD7550001283
:1034D30014DD9B50001214DDC850001214DDF950A6
:1034E300001214DDC651001214DDD651001214DD92
:1034F3002952001214DD3652001214DD4352001219
:1035030014DD4C52001214DDB052001214DD0E53C0
:10351300001214DD5953001214DD7453001214DD2C
:103523009B53001214DDB853001214DDC453001270
:1035330014DD5555001214DD6E55001214DDEA55E5
:10354300001214DDFD55001214DD0D56001214DDBA
:10355300B156001214DD1D58001214DD305900124B
:1035630014DDD059001214DDDA59001214DD595A52
:10357300001214DD6A5A001214DDA95A001214DD78
:10358300D75A001214DDA45B001214DDFB5B00129A
:1035930014DD345C001214DD8A5C001214DDA85CB7
:1035A300001214DDF65C001214DDC15D001214DD9F
:1035B3000F5E001214DD5C5E001214DDDF5E00128C
:1035C30014DD095F001214DD3F5F001214DD4E5F4E
:1035D300001214DDAD5F001214DD2560001214DD4E
:1035E3006660001214DDB660001214DDE1600012A3
:1035F30014DDFB60001214DD1561001214DDEA61B5
:10360300001214DDF461001214DD2F62001214DDC8
:103613003F62001214DD9062001214DDA4620012F6
:1036230014DDC663001214DDDB63001214DD6E6467
:10363300001214DDE264001214DD8765001214DD4C
:103643009265001214DDF566001214DD1167001295
:1036530014DD5D67001214DDCB67001214DDFD6716
:10366300001214DD1768001214DD7768001214DDF0
:103673001669001214DD6169001214DDB46B0012C7
:1036830014DD4C6C001214DDC36C001214DD206FCA
:10369300001214DD386F001214DD3B6F001214DDCD
:1036A300476F001214DD5B6F001214DD636F0012AD
:1036B30014DD9A6F001214DD8E70001214DD187180
:1036C300001214DD9A71001214DD1A72001214DD57
:1036D300F172001214DD1373001214DDAC730012C7
:1036E30014DD0974001214DD0C74001214DD7B74F4
:1036F300001214DDC775001214DDDA76001214DD32
:103703006577001214DD7878001214DD3F7900121A
:1037130014DD7079001214DD9679001214DD9F799F
:10372300001214DDCE79001214DD7E7A001214DD4E
:103733002E7B001214DDA17B001214DD447C0012E9
:1037430014DDB77C001214DDF67C001214DD3F7D1E
:10375300001214DDB4AE071214DDDECB051214DD46
:1037630053CA051214DD42C9051214DD8AC80512B5
:1037730014DDF7C6051214DD93C6051214DDB1C3BB
:10378300051214DDDDC2051214DDDDC1051214DDE1
:10379300FEC0051214DD8EDD071214DDD1D9071228
:1037A30014DD6BD9071214DD73DD071214DDEDDDB3
:1037B300071214DDE8D8071214DD75DB071214DDD8
:1037C3008BE7061214DD56E6061214DDD4E5061265
:1037D30014DDCCE4061214DDF7FE011214DD1DFE28
:1037E300011214DD53FD011214DDC2FB011214DDBD
:1037F3008BFB011214DD5DFB011214DD11FB0112C1
:1038030014DD7AFA011214DDEAF9011214DDC4F9A8
:10381300011214DD79F9011214DD43F9011214DDEB
:10382300C6F8011214DD61F8011214DD10F801125B
:1038330014DD38F7011214DDA8F6011214DD5CF66D
:10384300011214DDD7F5011214DD92F5011214DD16
:1038530076F5011214DD1EF4011214DD0FDB0712DD
:1038630014DDF0F3011214DDFADA071214DDEADADB
:10387300071214DDE5FF051214DDFCFF011214DD50
:10388300D0D8071214DDC5D8071214DDB6D8071235
:1038930014DDF1D7071214DDBDF3011214DD41F37A
:1038A300011214DD76F7061214DDD1F5061214DDCC
:1038B300E0D7071214DDDFF4061214DD24F4061238
:1038C30014DD59D7051214DD00D7051214DD65B0D8
:1038D300071214DDCBD6051214DDFCEC021214DD45
:1038E30096D6051214DD62D6051214DDF5D5051240
:1038F30014DDDDD5051214DDB8D5051214DD89D22A
:10390300051214DD5CD0051214DD5CCE051214DD46
:10391300E2CD051214DD93CD051214DD4DCD051254
:1039230014DDEFCC051214DD76F4051214DDFBF380
:10393300051214DD93F2051214DD1AF1051214DDDC
:1039430049B0071214DDA3EE051214DD28ED0512AC
:1039530014DDCCEC051214DDBDEC051214DD4AFFB9
:103963000400000080FB000000002001B58500007A
:1039730001002001B585000002002001B48500008C
:1039830003002001BC850000040042016D8000009B
:10399300050042017E80000006004201A080000075
:1039A30007002001AB800000100042018F8000005F
:1039B300110020018008000000404201A0800000A7
:1039C30000804201D28106000000101100000700B0
:1039D3000000303300000700100030330000070000
:1039E300014020330000070002402033000008009C
:1039F3000000203300000C005500393300000C0098
:103A03001C00423300001200550021010000140085
:103A13000E00422200000004000021040000020402
:103A23000000290400000304000029040000050429
:103A33000000290400000C040000390400000D04F8
:103A43000000390400002A040000390400000207C2
:103A5300000029040000020700021805B7850207C9
:103A6300000330050000020701032205E484020776
:103A730002032205E884020703031801BA8502073B
:103A8300060318010000040B00001B05CC84040B83
:103A9300000129050000040B030129050000040BA4
:103AA300060129040000040B00022105A785040B6D
:103AB30001022105AF85040B02022105A785040B32
:103AC30003022105AD85040B04022105A785040B20
:103AD30005022105A985040B000321040000040B42
:103AE30000042105A785040B01042105A585040B0A
:103AF300050521050000040B080521050000040B42
:103B03000B0529040000040B100528040000040B16
:103B130000062105A785040B01062105AF85040BCB
:103B230002062105A785040B03062105AD85040BB9
:103B330004062105A785040B05062105AB850000B6
:103B4300000000000120283900010220283900016B
:103B53000320283901000420283900010500941EA0
:103B6300000006000000000007005A3700000800AC
:103B73007E2200000000000000000A000000000098
:103B83000B20722210000C02C03700000D00000051
:103B930000000E20283910010F20283910000000E2
:103BA3000000000000000000000000000000000012
:103BB3001300922300000000000000001500BA1C4F
:103BC30041001600BA1C5000170192230000180090
:103BD300000000001900E42200001A00E4220000A3
:103BE3001B00742310001C01C61900011D01C61916
:103BF30000011E000E2310031F01A438080020003B
:103C03009A2400002100CE3800002200141D100069
:103C13002300C03700000000000000000000000087
:103C2300000026014E221000270000000000280992
:103C33003C2200002900522410002A60541900037A
:103C43002B22722210002C007C2410002D027C24D5
:103C530010002E00000000002F00000000003000C4
:103C63002C2310003101000000003200000000008E
:103C730033000000000034000000000035000000A5
:103C8300000036000000000037000000000038008C
:103C9300000000003901C61900013A0000000000CD
:103CA3003B00000000003C00000000003D0000005D
:103CB30000008F000100F51B87000100B51E3500D1
:103CC3000400791E250002007D1E260002007F1ECF
:103CD30027000200811E280001008B1E290001001D
:103CE3008C1E840004008D1E86000100911E2A0094
:103CF3000100921E2B000100931E2C000100971E51
:103D03002D000800DD1B2E000100981E2F0001006E
:103D1300991E300001009A1E310001009B1E3200E3
:103D23000100E51B33000100E61B340001009C1E6B
:103D330036000100E71B380001009D1E3900010019
:103D4300961E83000200B31E63000100F21B640091
:103D53000100941E65000100951E6D000100F31B18
:103D630071000800D51B66000100B21E430001006C
:103D7300A31E44000200A41E45000100A61E460027
:103D83000200A71E47000800EA1B48000100A91E05
:103D93004B000100AA1E04000100B61EA100010091
:103DA300B91E37000100B81E88000100B71E3C0091
:103DB3000100E81B3D0001009E1E49000200AB1EEE
:103DC30067000100F41B4D000200AD1E4E00010010
:103DD300AF1E4F000200B01E3E000100A21E5100A4
:103DE30001009F1E52000100A01E53000100A11EEE
:103DF30054000100E91B00000000000000013636FA
:103E03000101000102010001030100010401060692
:103E130005020000070100340801000F0904010135
:103E23000D0100FF0E08000017020000190100FF3A
:103E33001A0100011B0100FE1C0100081D02000005
:103E43001F01000120010001210200002301000FD6
:103E5300240200002601000127010008280200FFB8
:103E63002A0100072B0102402C0100002D01000153
:103E73002E0100012F0100FF30010B1D310800004E
:103E83003A0100083B01000F3C0100013D0100FF26
:103E93003E04000042040000460400004A040000FF
:103EA3004E04000052040000560400005A040000AF
:103EB3006A0078003A24402446246C00F000E6238C
:103EC300EC23F2236B00F000FE2304244624660057
:103ED300F000FE2304244624670014001024162453
:103EE3001C246900140022242E242824EE22E80333
:103EF300AA23C823C2236400010000000000E023BA
:103F03006300010000000000E023620001000000E4
:103F13000000E0236100010000000000E0237000C6
:103F2300010000000000E02301037103010301030A
:103F3300010301030103220302030103100300032E
:103F43000003000300030003000300034203000314
:103F530024030603000300030403120325032303BE
:103F630025032303040304030003000300034403A2
:103F730000030003230300036503210035038103CA
:103F830000030503000300030003000325032303C9
:103F93000300710030016000110070003102200342
:103FA30050048000100061000000140063007300DF
:103FB30072006200430000001300060000000000CE
:103FC30004001200000000000000000004000400D0
:103FD300370037003C0244000000000000000000EE
:103FE300650000003500810000000500000083002B
:103FF3000000010171010101010111010101310100
:10400300010101018001100161013B001400630102
:1040130073017201620143010001130106013D01B5
:104023003500040112010001000100010001040137
:104033000401330133013C01440132013600000124
:1040430000016501000135008101000105018201C4
:104053008301000103047104020460041104700469
:1040630002040204010402041004610400041404A1
:104073006304730472046204430400041304060417
:1040830000040004040412040004000400040004F7
:104093005104640000040004000444040004000408
:1040A300000400046504000435048104640005046D
:1040B3000004830400040302710230016002110250
:1040C30070020102020202028002100261023A003F
:1040D300410063027302720262024302000213028E
:1040E3003800000200020402120200020002000271
:1040F300000204020402370037003C0244020002BB
:10410300390000020002650200023502810200024A
:10411300050282028302000236000100060000004D
:104123000F0000000000000000000000000003FF7B
:10413300FF00000403FFFF0000FFFF0FF401000571
:10414300C4040320000100000B0000000000000075
:104153000003010F00000000000000000000000049
:10416300000000000000000000000000000000004C
:10417300000000000000A825E425AE25D024B425C6
:10418300EA25B425F625BA25D024B425EA25C02589
:10419300D024C625D024CC25D024D225D024D8257C
:1041A300D024DE25D0240000000000000000000021
:1041B30000000000000000000000000000000000FC
:1041C30000000000000000000000000000000000EC
:1041D30000000000EA28130096281F009C281F8077
:1041E300A2280100EA2802001E2803002428040054
:1041F3002A280500302806003C2830005A283100C0
:1042030054283200662833006C28350072283400A5
:10421300782836007E2811008A281400DA38150021
:104223004E28FFFF00000A00000002000000040007
:104233000000080000001000000020000000400003
:1042430000008000000000010000000200000004E4
:1042530000000008000000100000002000000040E3
:10426300000001EE300618310812310B3031100016
:104273002E02F43005063107FA300CD6300DE23049
:1042830064FC2BFF000007ECFDFDFDECDCDCCCBC8B
:10429300ACAC9C9C8C7C7C6C6C5C5C5C4C4C3C3C0B
:1042A3002C2C1C1C03EAF5E5D5D5C5B5A59595853C
:1042B30085757565655555454535352525151505AB
:1042C30000160F00000B150B020002220F33000033
:1042D3000E5A6967426565416C6C69616E6365304E
:1042E3003901030507090B0D0F00020406080A0C28
:1042F3000D0001191618161618230300303017186D
:104303001921301B1D1F30303016181920231A1C99
:104313001E3000393D3F373C3C362C442D00034AC8
:1043230049434E181A2505020C0E020B040B0A070B
:1043330008000F020402010101010902E803000061
:1043430000BE040A0E00E80300007F000000081E00
:104353000404091003030A0C10080C2800041E09A6
:1043630003010C05081500FFE004124BEBA2E792D2
:10437300AF22E4F0A3F0A3F022A3124375A3F0222B
:104383007F0C02120AE0F508E4F509F50AF50B22A1
:104393007401F090051CE0640F22740912150D7F5F
:1043A3000402120AA3A3E024F5C394132290053C4C
:1043B300126EDB7A147B0022C082C083901D1174BD
:1043C300BAF0A37434F0A374CCF0A37434F0901D4A
:1043D3001574A2F0A37434F0A3749CF0A37434F0A6
:1043E300A374D8F0A37434F0A374DEF0A37434F090
:1043F300A374D2F0A37434F0A3748AF0A37434F0DA
:10440300901D2174AEF0A37434F0A374B4F0A374BC
:1044130034F0A374A8F0A37434F0A374E4F0A37489
:1044230034F0901D3212646860061266D21221467F
:10443300901D2F125B947408F0A3E4F0A3F0901D79
:10444300D2F0901D34F07C0BFDF97A357B1D1220E0
:10445300927C0B7D0079007A407B1D122092025BD7
:104463009D74F7120E5474F71215F0EAFEEBFF1267
:1044730059BB74051245317403F0EE2402FAE43F8C
:1044830012450B242DFCE43FFD8C828D831246499B
:1044930012451A6008124D9374FFF0A3F0EE242B1B
:1044A300E43F1C1CFD8C828D83A3E0C0E08A828BD9
:1044B300831259CCD0E012451A888289831261C4D1
:1044C3002403126CA512234474081218877403F092
:1044D30090053112131174021215D27903EEFAEF1B
:1044E300FB123676740212150DE9F5087007EEFA21
:1044F300EFFB12355CA9087409024DA3F582E43F72
:10450300F5831279101261B9FB8A828B83124529D4
:10451300E8F0A3E9F0EE22126EF9124529E8F0A3C0
:10452300E9127475E0221246148A828B8322F0A367
:10453300E4F012453922EE240DF582E43FF583229F
:1045430074F1120E54EAFEEBFF8C088D09890A12EE
:10455300461E8A828B83124614740F1218871246E2
:1045630037E824FF18E934FFF988828983E50A12C2
:1045730046299005361246269005351246267411B3
:10458300121887124637EE2404FCE43FFD880B8A99
:10459300828B83E0F50C8C828D83E0250CC3950B15
:1045A300126EF5E8F0A3E9125928A3A3A3A3A3A3CA
:1045B300A3A3E064037008125C84F0A3E4800312F5
:1045C300492A1245347409F0750C35750D1D750EA5
:1045D30000780C1214F612491E1220867403121569
:1045E3000D750CFF750DFF780C1214FAAC08AD09AC
:1045F3007903EEFAEFFB123676740212150DE9F524
:10460300087007EEFAEFFB12355CA9087F07021268
:104613000AE024FFF8A3E034FFF922EE2402FAE4CF
:104623003FFB2212464912462D22F0E824FF18E9E7
:1046330034FFF922E0F50CA312464912462D888275
:104643008983E50CF022E08882898322C082C083BB
:10465300901D51E0C39408400474078001E08A82EE
:104663008B83F033333354F8F9025B9D74F0120EED
:1046730054EAFEEBFF890C8C0E8D0F750A00A2AF76
:10468300E433F50BC2AF901D4B803F1247575037B1
:1046930012476864037030EE24F9FEEF34FFFF85A0
:1046A3000882850983A3A3E02405FCA3E03400FD6D
:1046B300EEFAEFFB122344EE24FF1EEF34FFFF74E8
:1046C30010250AF50A150C1258F512790CE50C6041
:1046D30006E508450970B4E50BA2E092AFA2AFE48A
:1046E30033F50BC2AF901D4B802C2402FAE435093D
:1046F300FB8A828B83126EE42406F582E438F58309
:104703001247758A828B8312475DA3A312477505EF
:104713000A150C1258F512590A60221247686402EE
:1047230070F1124757E50840C1124A58A2E550E319
:10473300850E82850F837401F0E50C70D6E50BA21C
:10474300E092AF8E828F83E50AF0EE24FFFAEF3416
:10475300FFFB8035124A63A2E622124761221272DE
:10476300D9A3A3A3228508828509831272D3126970
:104773000D22E08E828F83F0EE24FF1EEF34FFFFC5
:1047830022123742740412150D7F0802120A74ECC8
:10479300120E5474F51215F089138A128B0F8518B3
:1047A30082851983E4F0041215CA12346CE9F89077
:1047B300051BE0292434F508FA7B001220A48A0A99
:1047C3008B0BAE0AAF0BEE4F7003024912EE2402BD
:1047D300F50AE43FF50BA808EE28F8E43FF9850A4B
:1047E30082850B831245132404F510E43FF51185EC
:1047F3001082F583E4F090051BE0FCF8C3E498F81D
:1048030095E0F9850A82850B83E028F508A3E03952
:10481300F509900519126B9D750E00780C1214F6AC
:104823007D00AA08AB09122086740312150DAC187B
:10483300AD197401121887E0F9E50824FFFAE509B8
:1048430034FFFB1234728A828B83E4F0EA24FFF58F
:1048530008EB34FFF509E50FC454F0F9901DD3E0DC
:10486300C4333354C0F8900515E0A2E0E4331313C6
:104873004849440F124932E512C454F045138508E0
:1048830082850983F0A808850A82850B83E0FA856F
:104893001082851183E02AC398F0850A82850B83F1
:1048A300E8F0A3E509F012492A124534E4F0740A4A
:1048B300121887E4F075084075091DF50A78081287
:1048C30014F612491E122086740312150D851882E0
:1048D300851983E06009EE240E125A514408F01240
:1048E300365EE9F9E4F508F50978081214FA740458
:1048F3001215D2EEFAEFFB123676740212150DE999
:104903007006EEFAEFFB800BEEFAEFFB1220AA7AA9
:10491300007B00740B12150D0243837C0B7D00EEAC
:104923002418FAE43FFB221259BFE4F0A322E085E6
:10493300088285098312493C22F0126B712274F3B9
:10494300120E548A0A8B0BA2AFE433F50CC2AF7577
:104953000800750900901D4B802C124B7F50248555
:104963000A82850B83A3A3127D398E828F83A3A32F
:104973001266D5123664E9600A1249A5C2E6F08EC2
:10498300088F09124B74124E2D70CFE5084509604C
:1049930006124A5FD2E6F0E50CA2E092AF7F050271
:1049A300120A1249A922126B8AE02274F0120E54E1
:1049B300EAFEEBFF8C0C8D0D750E00A2AFE433F510
:1049C3000FC2AF750800750900901D4B8020850A42
:1049D30008850B09124A5FD2E4F0E508124A58D25F
:1049E300E7F0E50A24FBF582E50B34FFF583E0F5F8
:1049F3000AA3E0F50BE50A450B6043E50A1257E00D
:104A0300350BF583E0A2E750D9850A82850B83A392
:104A1300A3121311AC0CAD0DEEFAEFFB12366A7450
:104A23000212150DE960BBE508450960A1E50824FC
:104A33000D124A6B64017006124A74D2E4F0E50F5A
:104A4300A2E092AFE50845096006123556750E01DE
:104A5300A90E02478C12580A124A6E22124A632286
:104A6300E5082411124A6B22F582E43509F583E047
:104A7300228508828509831272D3E02274F2120E12
:104A83005474FE1215F0750C00750D00851882859F
:104A93001983E4F0A3F0A2AF33F50AC2AF901D4B24
:104AA300E0FEA3E0FF8035EE24FBF582EF34FF1236
:104AB300790A780C1214FAEEFCEFFD7A4B7B1D1287
:104AC30020DA740212150DEEFCEFFDAA18AB1912D1
:104AD30020C8AE08AF09901D51E014F0EE4F6027D7
:104AE300124B7F501DEE240BF8E43FF98882898333
:104AF300E024FFF0A3E034FFF08882898312646826
:104B030060A5124B708099E50AA2E092AF901D5107
:104B1300E0603190051CE0640F6006901DD2E070E8
:104B2300237A297B1D12374E9084B412130D7A29F0
:104B33007B1D123742740412150D800874F0125D48
:104B4300BB12354AAA18AB191220CE8A0A8B0BAEB8
:104B53000AAF0BEE4F601312347E1249A5A2E28E08
:104B6300828F83A350D674E980D4024E358E0C8F86
:104B73000DEE24FBF582EF34FFF583221249A9A23F
:104B8300E72274F7120E54EAFEEBFF12347E125939
:104B9300C9121089E96401900538700AE02401F80C
:104BA300A3E034008004E0F8A3E0F9126017126375
:104BB300C0901D51E0702190051CE0640F70197ABC
:104BC300297B1D12374E9084B412130D7A297B1D55
:104BD300123742740412150DA9A8C2AF901D51E0FB
:104BE30004124BEBA2E7800DF0E9A2E7E433F8E906
:104BF30022E508A2E092AF025E5774F7120E54EA60
:104C0300FEEBFF124C32F012347EEEFCEFFD7A4BDA
:104C13007B1D1220D4A9A8C2AF901D5112436B90E3
:104C2300051CE0640F70057908123616025E5712F0
:104C330049A9C2E42274F7120E5474EA1215F0EA79
:104C4300FEEBFF900515E06040851882851983749B
:104C530001F0121887E4124D0A121887AA82AB8357
:104C63001223448E828F83124A7AC0E0740A121888
:104C730087D0E0126F0A740B121887AA82AB8312D3
:104C8300368EAA18AB19122ADC7416024DA374F7D8
:104C9300120E54EAFEEBFF123460E9F974DC69602A
:104CA3001E74DD69601974E469601474F369600F3C
:104CB30074DE69600A74DF69600574DB697007EE8E
:104CC300FAEFFB12361C025E5774F7120E5474EBA4
:104CD3001215F0EAFEEBFF8518828519837406121C
:104CE3004D0A121887AA82AB83122344126F0F74E2
:104CF3000A121887AA82AB8312368EAA18AB19122E
:104D03002ADC7415024DA3F0EE2413FCE43FFD747A
:104D1300022274F7120E5474F71215F0EAFEEBFF39
:104D2300EE242D125A5160651255E2AA18AB1912DE
:104D3300234474081218877403F090053112131179
:104D4300124D93121311900544E0F974041215D215
:104D5300EEFAEFFB123466740412150DE9F974DCF4
:104D630069602374DD69601E74E469601974F36912
:104D7300601474DE69600F74DF69600A74E8696047
:104D83000574DB697007EEFAEFFB12361C0244FA76
:104D9300EE124D9822242BF582E43FF5832274030F
:104DA30012150D025E5774F2120E548A088B0975A0
:104DB3000C00750D00750AE7A2AFE433F50BC2AF23
:104DC300901D4B8003124B70124E2D6035124B7F9A
:104DD30050F3125A4E640170ECEE242FF582E43F37
:104DE300124FDCE06870DE780C1214FAEEFCEFFD73
:104DF3007A4B7B1D1220DA740212150D901D51E0BF
:104E030014F0E50BA2E092AFEE4F6013EEFAEFFB66
:104E130012347E79F0EEFAEFFB12361C750A00A904
:104E23000AAA08AB0912361C800DE0FEA3E0FFEED0
:104E33004F22740212150D7F0602120A74F4120E29
:104E43005474F71215F0EAFEEBFF8E828F83A3E012
:104E530064F37003024EE98E828F83A3E064DF70F4
:104E630003024EE98E828F83A3E064E860788E822A
:104E73008F83A3E064DB606E1234C0E9F508705ED3
:104E8300EE240E125A516056124EF3123508EA4BB5
:104E9300604C7408121887124EFD1213117508FF27
:104EA3007509FF78081214FA8E828F83A3A3A3A334
:104EB300A3A3A3A3E0F974041215D21234667404F5
:104EC30012150DE9F50874F36508601274DF6508BF
:104ED300600C74E86508600674DB6508700F8E82E9
:104EE3008F83A3E508F0EEFAEFFB1234CC02439D67
:104EF300EE240FFAE43FFB79092274021276D2748E
:104F0300FFF0A3124F0A22124F0E221261CDA3A368
:104F13002274F5120E548A088B097E008A828B83D1
:104F2300A3A3A3A3A3A31243A740027EE88A828B71
:104F330083A3A3A3A3A3A3A3A3A3A3E0C394104006
:104F4300047EE880138A828B83A3A3A3A3A3A3A3D2
:104F5300A3A3A3E0640F600A901DAFE0540870029E
:104F63007EE8EA240BF582E43509124FDCA3A3A300
:104F7300A3A3A3A3A3E0C398500CEA240B124A6B88
:104F8300640F60027EE8900535E0F47003A3E0F45B
:104F930070027EEC7A237B00122140901D32126650
:104FA300E5901D321264686029850882850983A310
:104FB300A3A982AA8389088A09750A0078081214AA
:104FC300F67C237D001266D2122086740312150D1F
:104FD30080027E1AEEF9027873F583E0F88A828BF9
:104FE30083A3A32274F5120E54EAFEEBFF8E828F85
:104FF30083A3A3A3A3A3A3A3A3E090051C1275B546
:1050030090053712759B9005171275BA901DD3F052
:10501300F9121B2E901DD3E06018EE2404FAE43F2E
:10502300FB7950121B16EE2406FAE43FFB79E112DA
:105033001B16901DD2124393600474018002740006
:10504300901D341275A11214F67C0B7D007A357B0A
:105053001D122086740312150DEE2418F508E43F83
:10506300F50978081214F67C0B7D007A407B1D024B
:10507300786B74F7120E54EAFEEBFF8E828F83A3D4
:10508300E070061266D21234C68E828F83742C129D
:105093005DBB123628025E5774F7120E54EAFEEB1C
:1050A300FF901D32126468600D1266D2901D32E4C7
:1050B300F0A3F01221468E828F837408125DBB1217
:1050C3002ADC025E5774F6120E54901DD2E0601370
:1050D300901D34E0700D1250E9123478EA4B6003EE
:1050E30012355C027215900517E0FB900537E0FA64
:1050F30090051CE0F92274F4120E5474E71215F0B3
:10510300EAFEEBFF750B018E828F83A3A3A3A3A3F8
:10511300A3A3E0A2E25068EE242BF582E43F127DC4
:10512300371251B7123484E970559083D1E064018A
:105133007005750B0080481251BF1214F67C0B7D6D
:105143000074111215CA122086740312150D12363B
:105153005EE9FA740E1215C28808890978081214D8
:10516300FA75083075090078081214FA124D931273
:105173001311126EAB790112367C740612150D856C
:1051830018828519837410124D0A121887AA82ABEC
:1051930083122338124D93126ED7740B1218871291
:1051A30063C0740D121887E50B125C2E122ADC748F
:1051B3001902439FEE2413FAE43FFB22EE24081264
:1051C30075A922C082C083901DD3E060031236D03C
:1051D300025B9DC082C083901DCA7411F0A3741D2D
:1051E300F0A37415F0A3741DF0A37421F0A3741D30
:1051F300F0901EDD7457F0A37440F0901DB4745A00
:10520300F0A37434F0901D567490F0A37434F090AE
:105213001D587496F0A37434F0901DAFE0440280DF
:1052230001E4F0025B9DC082C083EAFCEBFD7903DD
:10523300026239C082C083EAFCEBFD790502623960
:10524300C082C08379080273A6C082C08374FE1231
:1052530015F0901D5E7444F0A37435F0901D6074D6
:105263003EF0A37435F0800D7A4B7B1D1220CE12D5
:105273005C2412364C901D4B12646870EB901D4DEC
:10528300126468600F7A4D7B1D1220CE125C2412CB
:10529300364C80E9901D4BE4F0A3F0901D5112436E
:1052A3007674028002741112150D025B9D74F6125E
:1052B3000E54E9FF741529F582E43443F583E4932E
:1052C300FEFA7B001220A4EA4B6011EA2E1263B6A9
:1052D3008A828B83A3A3A3A3E4F0802C7A027B00AE
:1052E3001220A4EA4B601D74FF2FF582E43442F5CB
:1052F30083E4938A828B83F0A3741AF0901DAAE04F
:10530300F91220B07A007B00027215E9FC740629B9
:10531300F8EAA2E0501EE875F00A84E5F0F960149B
:10532300740A28C399F8E9C394054004740A28F859
:10533300740B28F8ECC3941340047A1480027A06A1
:10534300EA2879002409F85001097A0A7B00120A35
:10535300D5E8F90214DAC082C083901DAFE054028D
:10536300600A122AE2E96004790180027900025B93
:105373009DC082C083901DAFE054026016901D5102
:10538300E0700C126465600BE0C812590250047996
:105393000180027900025B9DC082C0839083CEE0CE
:1053A300F8901D53E0C39850051220A480047A009E
:1053B3007B00025B9DC082C08312364C7900025B86
:1053C3009D74F7120E5474FE1215F0851882851918
:1053D30083EAF0A3EB125533A3A3A3A3A3E0600ACC
:1053E30014606024FE60690254B490051CE0640FED
:1053F3006018123622E970128518828519831266A5
:10540300D5901D5A1259CC121089900544E0C0E082
:10541300851882851983126197D0E012553374146D
:105423001276CE127D397A4D7B1D1220C8A8A8C2F0
:10543300AF901D53E0041266EB7920123616740206
:10544300024DA38518828519831272DB741580D0EF
:10545300851882851983125516A3A3E06053851816
:1054630082851983E02402F8A3E03400F988828955
:1054730083127B0CE0C0E0851882851983E0FCA3CE
:10548300E0CC2406F582E43CF583D0E0126F178864
:105493008289831266E58518828519831257FE85F2
:1054A3001882851983601312551B6005125523401A
:1054B30043AA18AB1912364C808412551B60F212A2
:1054C3005523501C125912FA8518828519831255D7
:1054D3001DF874351263B13443F583E4936A6014A1
:1054E30085188285198312551B640870C4125912DA
:1054F300640870BD1259121412553B240AC0E0858A
:1055030018828519831259CCD0E012553B040254FA
:1055130023E0F8A31261E422E0F8A3E0125542224B
:10552300851882851983126EE8125543C3940A22A3
:1055330012554DF58388822212554D12554222C8C9
:105543002406F582E438F583E0221276D2E0F8A34C
:10555300E022C082C083901D6212646860081272E8
:10556300DC12108980027900025B9D74F7120E54DD
:10557300EAFEEBFF1245397401F0EE2430F582E4C4
:105583003FF583126C451245132432125A51C0E081
:10559300EE2413F582E43FF583D0E0F0EE243312DA
:1055A3005A51C0E0EE2414F582E43FF583D0E0F0D5
:1055B300EE242CF582E43FF5831213111255E2EE2B
:1055C300242E125A51F9123676740212150DE9F58A
:1055D300087007EEFAEFFB12355CA908025E57EE7E
:1055E3002423FCE43FFD22C082C083123622E960FB
:1055F30004792080027901025B9DC082C083EA1294
:1056030057E01256A1D2E0025225C082C08312563F
:105613009B640170111256A6400C8A828B83A3E00F
:10562300F912361C806FEA241012569EA2E650121D
:105633008A828B83A3E0F9901D5C1259CC121089E6
:10564300805312569B6401700D1256A650088A822D
:105653008B83743080368A828B83A3E0641B8A82B7
:105663008B83700474228024A3E0700D12569BF880
:10567300740A1263B13443800B12569BF874FF1201
:1056830063B13442F583E4938A828B83F0901DAA3D
:10569300E0F91220B0025B9DEA240DF582E43BF5AC
:1056A30083E022EA12580A3BF583E0A2E32274F76F
:1056B300120E54E9FE12646570030257D7EE6011AF
:1056C300741B6E7013E0C81257DA64057003025737
:1056D300A21272CBE40257A674E96E70621257F6F7
:1056E300700B122AE8E96005125810606279EE1215
:1056F3001A98901D541257F3901D54603B1258137F
:10570300901D54700B1257F314F0121C4E0257D70E
:105713001257FEC2E712591E1257DA6403700C12B5
:105723006EE11257E0125548D2E2F079ED121A9861
:105733001257E612108980751272CE74E980647470
:10574300E16E703E122AE8E96055125810705090CD
:10575300053EE0C0E0126EE12412F582E438F583E1
:10576300D0E0F090052DE0C0E0901D5412551412C6
:105773005514D0E0F090052DE004F07901121C36A9
:105783008052741C6E7018901D541266D5901D645F
:105793001259CC121089901D54E4F0A3F0803512F5
:1057A30072CBEEF0901D541266D512354A126EE19B
:1057B300126EB3E054806010900544E0F9121B525E
:1057C300900543E0F9121B46901D54E4F0A3F079D1
:1057D30010123616025E57240D125545222411F578
:1057E30082E422901D541266D9901D581272D5225C
:1057F300E0F8A3E0C8241212554522E0F8A3E0C85C
:1058030012580A125548222410F582E422901D549E
:10581300126EE8126EB7E054042274F4120E54753B
:105823000A00750B00A2AFE433FFC2AF12646560D8
:10583300030258DA1259C9121089E94410F8901D6D
:105843004B800985080A85090B1258F512590A700D
:10585300030258DA124A5F586870E8780A1214FA99
:10586300AC08AD097A4B7B1D1220DA740212150DB8
:10587300901D54E508F0A3E50912591E1259024080
:105883005D901D52E014F0EFA2E092AF901D54E042
:10589300240EF8A3E03400F9880889098882F58387
:1058A3001266D5901D54125918F912350EE9901D40
:1058B3004FF0125926E05480901D546026126EE476
:1058C3002413125545F9121B52126EE1241412557A
:1058D30045F9121B468018EFA2E092AF8011901D8C
:1058E3005180A11257FEA2E1B3E433F9121C360230
:1058F30043A2E50824FBF582E50934FFF58322245E
:1059030011125545A2E722127910E50845092285AF
:105913001882851983124761A3E022F0901D541267
:105923006EE822A3E4F08508828509832274F712C6
:105933000E54EAFEEBFF123646EE2410125A51A221
:10594300E3400C125A4E640170059083CC8003909F
:1059530083CDE0F9EEFCEFFD7A4B7B1D1220E0E9ED
:105963006046EEFAEFFB901D5E1259CC121089EEE1
:10597300240E125A5154047020A8A8C2AF901D528D
:10598300E0041266CBFAE8A2E792AF1259BBA3E098
:1059930054017021123556801CEEFAEFFB901D5610
:1059A3001259CC121089800D8E828F83A374F11249
:1059B3005DBB12354A025E571259BF22EE240EF523
:1059C30082E43FF58322901D601272D522C082C00B
:1059D30083123556025B9D74F7120E54EAFEEBFFF9
:1059E3007900901DAFE05402700CEE2430125A512E
:1059F3005404600279E8901DAFE05460700CEE240B
:105A030030125A515402600279E88E828F83A3A325
:105A1300A3A3E0F89083D2E0C398500279E8EE2480
:105A23002E125A51700CEE242B125A51700479F530
:105A3300800BE97005123538E9F9E96007EEFAEFF2
:105A4300FB12361C025E5734FFF509EE240DF58276
:105A5300E43FF583E022C082C0838A828B83740D86
:105A6300F0122ADC025B9DC082C0838A828B83E4AE
:105A7300F0A3F0EA243012569E54049083CC7012A3
:105A8300E0F8901D52E0C398401279F112361C02DF
:105A93005B9DE0F8901D51E0C39850EE901DAAE085
:105AA300F91220B080E974F6120E54E9FE244CFA80
:105AB300E43400FB1220A4EA4B6012EE8A828B834B
:105AC300A3A3A3A3F0EA244C1263B680047A007B59
:105AD30000027215C082C083901D6674A4F0A37483
:105AE30035F0A374D4F0A37435F0A374AAF0A374AF
:105AF30035F0A374B0F0A37435F0A374CEF0A3749F
:105B030035F0A374C2F0A37435F0A374BCF0A3748E
