:020000040000FA
:060000000217C4020A749D
:03001300020B30AD
:03002B0002155566
:03003300020CBEFE
:03003B00020B8530
:030053000209A9F6
:03005B000212C7C7
:030063000212E89E
:03006B00020C6420
:03007B00020C95DF
:10008300020A08010020FD0002019405000000019E
:10009300361D481D00004E1D541D000000005A1D52
:1000A300721D781D7E1D0000000000000000080185
:1000B300FF0D0106FFFFFFFFFFFFFF01010104002A
:1000C300E01A000000E8030000FFFF581BE80300EC
:1000D3000064006400B801A0BB0D00A0BB0D0002CA
:1000E3000200F8FF0705021E0401051E02051E0299
:1000F3000A0A010108080103102702803E0102FEDB
:10010300FFE8030A050001FFFF010A1401E0C5032C
:10011300423F1A51123FF304B53F0000803E0101F4
:1001230005030101FF0F10FEFF7B3F0000000013DA
:100133003F00000000FF000000FF00C082C083E911
:10014300FA5407F8748528F582E43483F583E0F8DC
:1001530079006022EAC4540F540360081460091440
:10016300600D8012E5808002E5905870078007E5F6
:10017300A05860027901020267C082C08312026C38
:10018300400478008003120324E8F4FCEB600814B5
:10019300601214601C802BEA6005E842808023EC27
:1001A3005280801EEA6005E842908016EC529080EF
:1001B30011E8C39420500BEA6005E842A08003ECE9
:1001C30052A0020267C082C08312026C400478000E
:1001D3008003120324E8F4FCE87003020267EB6077
:1001E3000814602C146050807BEC52F374016A6035
:1001F3001274026A601574046A7003E8428FE8425D
:10020300FD806153F7DFEC528F80F343F72080F6D4
:10021300EC52F474016A601274026A601574046A21
:100223007003E842F6E842FE803A53F7BFEC52F619
:1002330080F343F74080F6E8C394205027EC52F54F
:1002430074016A601274026A601574046A7003E8C8
:1002530042F7E842FF800D53F77FEC52F780F343F8
:10026300F78080F6D083D08222E9C4540F5403FB75
:10027300743F59C394302274F8120EBAE9C4540F70
:100283005403FE743F59C394304004780080031232
:100293000324E8F4FBE86077EE600814602B146035
:1002A3004E806CEB52F352FD74016A600F74026A64
:1002B300600F74046A7058E8428F805353F7DF80ED
:1002C3000343F720EB528F8046EB52F452FE740146
:1002D3006A600F74026A600F74046A7032E842F64F
:1002E300802D53F7BF800343F740EB52F68020E89D
:1002F300C39420501AEB44E0FB52F552FF74016A99
:10030300601274026A601574046A7003E842F77F2E
:100313000102124853F77FEB52F780F343F78080D3
:10032300F6E95407FC74852CF582E43483F583E005
:10033300F822C082C08312026C400478008003124A
:100343000324E8F4FCE86038EB60081460121460DE
:100353001C802DEA6005E842FD8025EC52FD8020DB
:10036300EA6005E842FE8018EC52FE8013E8C3946D
:1003730020500DEA6005E842FF800574E04C52FF0F
:10038300020267C082C08312026C400478008003BB
:10039300120324E8F4FCE8603FEB600814601514D2
:1003A30060228034EA6005E842808003EC5280E8F2
:1003B30042FD8024EA6005E842908003EC5290E815
:1003C30042FE8014E8C39420500EEA6005E842A080
:1003D3008003EC52A0E842FF020267743F59C394C2
:1003E300305042E9C4540F5403600714601314607F
:1003F30020227801E8F4FBEA6024146018146019E1
:1004030022740F59C394045004780280E77804805F
:10041300E3780880DFE8428C22E58C586004EB52D5
:100423008C22E8428C221217D4601D1217E3700548
:10043300191919801A121665701F12163DC370031D
:10044300E6673319191940071818182208080874A1
:10045300FFF618F618F618F62212163D6017121852
:1004630089702192F01218927019501720F0140815
:100473000808090909E7F61819E7F61819E7F6183D
:1004830019E7F62212189260E6E869701F0808E679
:100493002480F608E436F618547FB47F0CE65480C3
:1004A3006007F6E418F618F622181822E9C6CC08F5
:1004B300C6CD08C6CE08C6CFC0E0E8C0E0EAC0E0BB
:1004C300EBC0E009E9F809E7FA09E7FBE6F918E602
:1004D300F8C3EC98ED99EE9AEBC2E7F5F0EFC2E7BB
:1004E30095F0500E600CEBCFFBEACEFAE9CDF9E8BC
:1004F300CCF8EAA2E7D2E7FAEB33FB13F5F0EEA26E
:10050300E7D2E7FEEF33FFC5F013A2E730E601B30E
:1005130013C5F0C3C0E0C0F07F00C39BFB605E94D3
:1005230018600F401D14601AD0E023F9D0E0F802E0
:10053300060A8AF0E9486003D2F0E4AFF0FAF9F86A
:10054300803BEB30E40D89F0EA6003D2F0E4AFF0D6
:10055300F9CAF8EB30E30D88F0EF6002D2F0AFF0A8
:10056300E4CAC9F8EB54076014FBC3EA13FAE913AE
:10057300F9E813F8EF135002D2E0FFDBEDD0E0C04F
:10058300E030E739C3E49FFFF5F0EC98FC42F0ED6F
:1005930099FD42F0EE9AFE42F0D0E0F9D0E0F8E5A2
:1005A300F0607AE923F9EE20E742D8028067C3EFCF
:1005B30033FFEC33FCED33FDEE33FE80EAEC28FC35
:1005C300ED39FDEE3AFED0E023F9D0E0F8400280A9
:1005D3001BC3EE13FEED13FDEC13FCEF135002D21D
:1005E300E0FF08B800067F7F74FF802EEF335017BB
:1005F3008CF020F00260100CBC000C0DBD00080E46
:10060300BE000408E860DFE933E813FFEE2313FEBE
:100613004F4D4C8008E95480FFE4FEFDFCEE33EFC0
:1006230033F47004FCFD7E80D0E0FBD0E0FAD0E030
:10063300F8D0E0CFC618CEC618CDC618CCC6F9225E
:100643001217D47004181818221217E3700D74FFD0
:10065300F61819F61819F61819F622E7548066F6F3
:10066300121892700F12188970F014F608F608F633
:1006730008F680D1121889700CF608F608768008FF
:10068300E6447F80EC121640700C12166860BFE6D9
:100693005480F6E480BB121668700519191980A5F9
:1006A300E869700C763F18768018F618F6E8F92298
:1006B300E6CDC0E018ECC0E0E633CD33CDD313F67E
:1006C300E719FCE7191933CC33C3947F400ECD9D52
:1006D300502408E65480F6E418F6800FF4043D1421
:1006E300501408E6447FF6187680E418F618F6D01E
:1006F300E0FCD0E0FD22CCD313CCFD18E4C6CBC084
:10070300E018E4C6CAC0E00808ED08C633E613F6ED
:1007130018E433C675F003C3CA97CA09CB97CB193C
:100723009C40047D08802EBD00030207EC16B6FF33
:10073300050606081618C3CA33CACB33CB33CA27F8
:10074300CA09CB37CB193CC37D08803E187D0820EE
:10075300E75CC633C6CA33CACB33CB33DDF1D5F03E
:10076300EB30E77BCA97CA09CB974ACB199C406FFA
:100773004B7025E620E0218066187D08C3CA97CA1E
:1007830009CB97CB199CD3C633C6CA33CACB33CB59
:100793003350C9DDE7D5F0E1D3E4C636C608C63623
:1007A300C608C636C608C636C61818188031C3CA66
:1007B30097CA09CB97CB199CB34097C633C6CA33A4
:1007C300CACB33CB33DD34D5F02EC6A2E0C640C846
:1007D300CA27CA09CB37194A70BECB3CB480B908C3
:1007E30008E63308E633601F181818D0E0FAD0E0A3
:1007F300FBD0E0FCD0E0FD22187D08CA27CA09CB54
:1008030037CB193CD3808013F618E4B67F11F61862
:10081300B6FF0EF618C60470D20808768080CAF6B2
:1008230018F618F680C5001217D4604F1217E3604C
:1008330012E7548066F61216657011121889703B20
:10084300090909F4F618F618F618F62212163D707F
:100853001512189208080860EAE6447FF6187680B5
:1008630018E4F618F62212189260161218897012FC
:10087300E4F608F608F608E65480F609090918189C
:100883001822EAC0E0EBC0E0ECC0E0EDC0E0E68790
:10089300F0A4FBACF008E687F0A42CFCE435F0FAF6
:1008A3001809E687F0A42C4B60027401CA35F0FCEA
:1008B300E433FB09E687F0D2F7A42CCB35F0FC191F
:1008C30008E687F0A42BCC35F0FBE433FD0819E6EA
:1008D30087F0D2E7A42C4ACB35F0CD3400FC09E6EF
:1008E30087F0D2E7A42DCC35F0FDE433FA0918E6FE
:1008F30087F0D2F7A42CCD35F0CA3400FC08E68784
:10090300F0D2E7D2F7A42ACC35F07A7E20E70B0A9F
:10091300CB33CBCD33CDCC33CC33CB33501470046A
:10092300ED30E00ED2F1E4CD3DCDCC3CCC3B5005D7
:10093300DA05C2F1EB547FC63308E63392F0FBE7E6
:100943003309E733C39A502D2B70190C0D4C4D709E
:10095300151806E608C333700D20F10AA2F013F64A
:10096300E418800B4024E4F630F002768018F61881
:10097300F618F68024D33B14501074FFA2F013F63C
:10098300187680E418F618F6800FA2F013F618E62E
:100993003303F618ECF618EDF6D0E0FDD0E0FCD00A
:1009A300E0FBD0E0FA22C0E074F1120F20A2AFE422
:1009B30033F509D2AF85A708AFA1EF5508FE741030
:1009C3005E6006121A2475A1EF74085E6008121A9D
:1009D3002A75A1F78024EFA2E092F0E508A2E08255
:1009E300F05017906198E0F8900504E0C398A2D204
:1009F30065D0335002E8F075A1FEE509A2E092AF9D
:100A03007F02020F7FC0E074F2120F20A2AFE43323
:100A1300FED2AF9061A4E0F8759B00E591585408AD
:100A230060087591F7121A728023E591585410608B
:100A3300087591EF121A788014E591A2E092F0E81C
:100A4300A2E082F05007E0C2E0F0121BC29061A363
:100A5300E0F8E5E9585404600E121B9875E9FB9021
:100A63006193E0A2E640F2EEA2E092AF7F01020FB3
:100A73007FC0E074F2120F20A2AFE433FED2AF9036
:100A830061A5E0F8E5BF585404600675BFFB121B6F
:100A9300DA80D4C3E498F8E499F9120AD78026C31C
:100AA300E49AFAE49BFBE920E7E9120AD7E498F811
:100AB300E499F922C3E498F8E499F9120AD7E4987F
:100AC300F8E499F9C3E49AFAE49BFB22EB20E7CF1D
:100AD300E920E7E0B90010BB0008E88AF084F8AA2F
:100AE300F022E4FBC8FA22EB70227B10C833C8C99A
:100AF30033C9335007C39AC3DBF280069A50012AE5
:100B0300DBEAC833F4C8C933F4C9FA2275F008E440
:100B1300C833C8C933C933C99AC99B5004C92AC940
:100B23003BD5F0ECFBC833F4C8E4C9FA22C0E0C0FB
:100B3300D0E8C0E0E9C0E0C082C083A8C1E8C0E05B
:100B43009004B1E0F8743028F582E43404F583D0DE
:100B5300E0F09004B0E0F8A3E0687006E595900437
:100B6300B3F09004B1E004F0C394804002E4F0A336
:100B730074C6F0D083D082D0E0F9D0E0F8D0D0D0E2
:100B8300E032C0E0C0D0E8C0E0E9C0E0C082C0838A
:100B93009004F4E0F8A3E0687008539AFBA374018F
:100BA3008022C2E99004F4E0F8740128F074B428B8
:100BB300F582E43404F583E0F5C19004F4E0C394D2
:100BC300404002E4F080AC120C1530F039120C5A9C
:100BD3008034120C1520F01430E72B74FFFCFBFA61
:100BE300747F8022E4FCFBFA7480801AB48008BC12
:100BF30000F2BB00EF800F50EBF9E4C39AFAE49BD9
:100C0300FBE49CFCE499C6CC18C6CB18C6CA18C62C
:100C1300F922E4C9C608CAC608CBC6D3330308CC35
:100C2300C63392F0C3947F402E94184019C9B90774
:100C330004CACBCC225025C309CA33CACB33CBCC8D
:100C430033CC33D9F422F4600DC9CCC313CB13CB0B
:100C5300CA13CAD9F6CC22E4FCFBFA2214FCFBFA31
:100C630022C0E074F2120F20A2AFE433FED2AF90A1
:100C730006A8E05589600FE589FA7900121E98905D
:100C830006A8E0F45289C2C5EEA2E092AF7F01024A
:100C93000F7FC0E074F2120F20A2AFE433FED2AF95
:100CA3009006A9E0558A600FE58AFA7901121E9829
:100CB3009006A9E0F4528AC2EB80CDC0E074F21230
:100CC3000F20A2AFE433FED2AF9006AAE0558B60AB
:100CD3000FE58BFA7902121E989006AAE0F4528B64
:100CE300C2E880A4080808EAC0E0EBC0E086F0E7A9
:100CF300A4FA180986F0E7A42AFA180986F0E7A4EB
:100D03002AFA180986F0E7A42AFA1986F0E7A4FB61
:100D1300E5F02AFA190886F0E7A42BFBE5F03AFA86
:100D2300190886F0E7A42BFBE5F03AFA18180986B0
:100D3300F0E7A4C5F02BFBE43AFA1908E7C5F0C6BF
:100D4300A426F6E5F03BFBE43AFA1886F0E7A4F6AE
:100D5300E5F00826F6E43B08F6E43A08F6D0E0FBB3
:100D6300D0E0FA22080808E630E7111216A1120DA6
:100D73007F080808C64480C618181822181818E9EE
:100D8300799EC608CAC608CBC608CCC6C3702079EC
:100D930096CACBCC7019798ECBCC70137986CC7074
:100DA3000EF9802ACA33CACB33CBCC33CC331930B8
:100DB300E7F2CCCBCA3350147004EA30E00DE4CA36
:100DC3003ACACB3BCBCC3CCC500209C3E913C6CCCB
:100DD300182313C6CB18C6CA18C6F922E4CFC0E03D
:100DE300E4CEC0E0E4CDC0E0E4CCC0E075F020E6A2
:100DF30026F608E633F608E633F608E633F618185F
:100E030018EC33FCED33FDEE33FEEF33FFC3EC9709
:100E130009ED9709EE9709EF97191919400FFFECA0
:100E230097FC09ED97FD09EE97FE191906D5F0BF5A
:100E3300ECF709EDF709EEF709EFF7191919D0E007
:100E4300FCD0E0FDD0E0FED0E0FF222518C582C033
:100E5300E0E51934FFC583C0E0E518C3958224F8A3
:100E630010AF0885831985821880088583198582C8
:100E730018D2AFCEF0A3E520F0A37808E608F0A3DC
:100E8300DEFAEFF0A3E58124FAF8E608F0A3E6081A
:100E9300F0A3E608F0A30808E608F0A3E608F0A329
:100EA30015811581D0E0FED0E0F8158115811581FB
:100EB300E8C0E0EEC0E0222518C582C0E0E51934A1
:100EC300FFC583C0E0E518C3958224F910AF0885F8
:100ED30083198582188008858319858218D2AFCE3D
:100EE300F0A3E520F0A37808E608F0A3DEFAEFF01C
:100EF300A3E58124FBF8E608F0A3E608F0A30808BD
:100F0300E608F0A3E608F0A315811581D0E0FED032
:100F1300E0F815811581E8C0E0EEC0E022C0D025DD
:100F230018C582C0E0E51934FFC583C0E0E518C3E6
:100F3300958224F310AF088583198582188008856C
:100F43008319858218D2AFC8F0A3E9F0A3EAF0A30E
:100F5300EBF0A37908E709F0A3D8FAECF0A3EDF0DE
:100F6300A3EEF0A3EFF0A3D0E0F0A3D0E0F0A3D082
:100F7300E0F0A3E520F0A3E5F0F0A3228519838533
:100F83001882E0C0E0A3E0F9A3E0FAA3E0FBA378B2
:100F930008E0F608A3DFFAE0FCA3E0FDA3E0FEA36C
:100FA300E0FFA3E0C0E0A3E0C0E0A3E0F5D0A3E04E
:100FB300F520A3E0A3F5F010AF0885831985821807
:100FC3008008858319858218D2AFD082D083D0E080
:100FD300F8D0E0321216A4181818120DDF12177386
:100FE30019191922121773191919080808E618187C
:100FF3001820E7E0120DDF1216A4181818220909A9
:1010030009E719191920E7DC080808E61818182059
:10101300E703020DDF1216A4181818120DDF1216BB
:10102300A418181812177319191922121874B90071
:101033000302106DE49003D9784E791B8002F0A36C
:10104300D8FCD9FA7A267B1E90008678B97901807C
:1010530015E493A3AD82AE838A828B83F0A3AA8225
:10106300AB838D828E83D8E9D9E775828C7583C172
:1010730074071214CC75824A75833974001214CC28
:101083000575F0108E1A8F1B85821F85831E8518A8
:1010930082851983E0CEA3E0CF851F82851E83EB73
:1010A300C9EAC8EDCBECCAC3E833C8E933C9EA33AC
:1010B300CAEB33CBC3EA9EF51DEB9FF51CB350047B
:1010C300AB1CAA1DEC33CCED33CDD5F0DAAE1AAFA1
:1010D3001B221217D4601C1217E3601712189270A8
:1010E300071218897001D322C0D01218897006D054
:1010F300D0B322C32233D0D0501430E0F6C3E796E6
:101103000809E7960809E7960809E796B32220E05D
:10111300D5E6970809E6970809E6970809E697B31D
:10112300221217D4601B1217E3601612189270076D
:10113300121889600CB322C0D01218897005D0D060
:1011430022C32233D0D0501330E0EBC3E796080913
:10115300E7960809E7960809E7962220E0E4E69770
:101163000809E6970809E6970809E69722D083D08D
:1011730082ECC0E0EDC0E0E493A3FCE493A3FDEDB7
:101183004C600D121288EC24FFFCED34FFFD80EF60
:10119300E493A3FCE493A3FDED4C600D12138FECD9
:1011A30024FFFCED34FFFD80EFD0E0FDD0E0FCE454
:1011B30093A3C0E0E493C0E022D083D082E9C0E0EF
:1011C300E493A3C386F0C5F095F0F908E493A386EE
:1011D300F0C5F095F0700BE493A3C3994005E904BF
:1011E3008002A3E475F002A42582F582E5F035833D
:1011F300F583D0E0F9E493A3C0E0E493C0E0228553
:101203001983851882E0A3FEE0A3F5207808E0A304
:10121300F608DFFAE0A3FFE0A3C0E0E0A3C0E0E04C
:10122300A3C0E0E0A3C0E0E0A3C0E010AF08858264
:10123300188583198008858218858319D2AFD083D6
:10124300D0820214D2851983851882E0A3FEE0A31D
:10125300F5207808E0A3F608DFFAE0A3FFE0A3C0D7
:10126300E0E0A3C0E0E0A3C0E0E0A3C0E010AF086B
:101273008582188583198008858218858319D2AFE2
:10128300D083D08222C0E0C3E4939608740193967E
:1012930018400FE493667008087401936618700091
:1012A3007019A3A3C3E49396087401939618A3A398
:1012B300400DD0E0D0E0D0E00211ACA3A3A3A3A3E0
:1012C300A3D0E022C0E074F2120F20C2D9901E59BD
:1012D300E0C39400A2D265D0334005E0F912226A3C
:1012E3007F01020F7FC0E074F2120F20C2DC901E58
:1012F3005BE0F9C39400A2D265D033400312226AA3
:1013030080DE7404800474028000CCC0E0EDC0E091
:10131300E518C39CCCAD1950011D10AF068C188D78
:101323001980068C188D19D2AF12144ED0E0FDD05F
:10133300E0FC2274028000CCC0E0EDC0E0E518C3FD
:101343009CCCAD1950011D10AF068C188D19800669
:101353008C188D19D2AF12140AD0E0FDD0E0FC2214
:101363001217D460251217E360201218927003023B
:101373001889080808E76670101819E766700A18D4
:1013830019E76670041819E76622F422C0E0C0F07A
:1013930088F0E4936670080874019366187000A8D7
:1013A300F0A3A3700BD0F0D0E0D0E0D0E00211ACFA
:1013B300A3A3D0F0D0E022D083D082CCC0E0E493CA
:1013C300A3600612146F1470FAE493A36006121557
:1013D300D21470FAD0E0FCE493A3C0E0E493C0E03D
:1013E30022C008C3E096F50808A3E096420808A3C4
:1013F300E096420808A3E0964208A2D265D033E5FE
:10140300087001D3D00822CAC0E0E493A3C582CCFC
:10141300C582C583CDC583F0A3C582CCC582C583F0
:10142300CDC583DAE5D0E0CA22A2E792D65002F412
:101433000430F70663F0FF05F0B3400384800384B0
:10144300F40430D60563F0FF05F022CAC0E0E0A340
:10145300C582CCC582C583CDC583F0A3C582CCC567
:1014630082C583CDC583DAE6D0E0CA22C0E0E49327
:10147300A3D39C5010E493A3C39C400AD0E0D0E0D4
:10148300D0E00213D7A3A3A3D0E022700908080871
:10149300226016181818C6C333C608C633C608C652
:1014A30033C608C633C6D5E0EA22C008C3E096F5C2
:1014B3000808A3E096420808A3E096420808A3E0C0
:1014C3009645087001D3D00822C09FF59FE473D0DE
:1014D3009F22D083D082C09FE493C0E0740193C065
:1014E300E0740293F59F227404800A7403800674E7
:1014F3000280027401C0E0F404121520D0E0121837
:101503001F2200C0D0251810AF08F518500C05197C
:101513008008F51850020519D2AFD0D0222518F54E
:101523008210AF08F518400C15198008F518400211
:101533001519D2AF85198322BB0102E722C082C0ED
:101543008389828A83BB0003E08002E493D083D043
:101553008222C0E0C0D0E8C0E0A8A8D2AFC2C7E8EA
:10156300A2E792AFD0E0F8D0D0D0E03260170808FD
:1015730008C6A2E713C618C613C618C613C618C6EC
:1015830013C6D5E0E9226016080808C6C313C618B7
:10159300C613C618C613C618C613C6D5E0EA22C3B7
:1015A300E0C696F608A3E0C696F608A3E0C696F64C
:1015B30008A3E0C696F6222518F8E43519F9222582
:1015C30018FAE43519FB222518FCE43519FD22C06D
:1015D300E0E493A36C7009D0E0D0E0D0E00213D72D
:1015E300A3A3D0E022251810AF08F518400C151955
:1015F3008008F51840021519D2AF22E7667010086B
:1016030009E766700A0809E76670040809E76622B5
:10161300C3E09608A3E09608A3E09608A3E096A289
:10162300D265D03322E066701008A3E066700A0822
:10163300A3E066700408A3E06622191919E70947B5
:10164300097009E727097005E733F4220922C3E08B
:1016530096F008A3E096F008A3E096F008A3E096BE
:10166300F022181818E60846087009E626087005DF
:10167300E633F4220822C3E4939608740193960890
:1016830074029396087403939622C3E697F60809A7
:10169300E697F60809E697F60809E697F62218187A
:1016A30018E4C396F608E496F608E496F608E4967A
:1016B300F622E493F608740193F608740293F6088D
:1016C300740393F622E667F60809E667F60809E667
:1016D30067F60809E667F622E056F608A3E056F631
:1016E30008A3E056F608A3E056F622E657F60809E3
:1016F300E657F60809E657F60809E657F622E627FD
:10170300F60809E637F60809E637F60809E637F674
:1017130022E026F608A3E036F608A3E036F608A38F
:10172300E036F622E026F008A3E036F008A3E03620
:10173300F008A3E036F022E647F60809E647F60884
:1017430009E647F60809E647F622700422600D18F9
:10175300C6C333C608C633C6D5E0F41822E056F034
:1017630008A3E056F008A3E056F008A3E056F022E1
:10177300E4C397F709E497F709E497F709E497F7C0
:1017830022600D08C6A2E713C618C613C6D5E0F338
:1017930022C6F4C608C6F4C608C6F4C608C6F4C60C
:1017A30022C3E09608A3E09608A3E09608A3E09678
:1017B30022C3E7960809E7960809E7960809E7961A
:1017C3002275D00075813F7518D975190300021071
:1017D3002EE6084608C3134608336002E633F422B4
:1017E300E7094709C3134709336002E733F422606B
:1017F3000C08C6C313C618C613C6D5E0F422E6F018
:1018030008A3E6F008A3E6F008A3E6F022E0F60852
:10181300A3E0F608A3E0F608A3E0F622CAC0E0E6D8
:10182300F0A308DAFAD0E0FA22E0FCA3E0FDA3E09B
:10183300FEA3E0FF22EAF0A3EBF0A3ECF0A3EDF0AC
:1018430022E0FAA3E0FBA3E0FCA3E0FD22E8F0A37F
:10185300E9F0A3EAF0A3EBF022ECF0A3EDF0A3EEA2
:10186300F0A3EFF022E0F8A3E0F9A3E0FAA3E0FB92
:1018730022E5C754F84401F5C77901222518F582FA
:10188300E43519F58322E72719471947194722E653
:101893002618461846184622C2AF75D69F02000086
:1018A300221214D528BE071214D580BE071214D5F0
:1018B30007BF071214D543BF071214D564DD0712FF
:1018C30014D574DD071214D5B69D071214D5199ECD
:1018D300071214D5689E071214D5959E071214D5C6
:1018E300EB9E071214D5C3FF031214D55CB4071281
:1018F30014D5A6B4071214D53CB5071214D5C2B536
:10190300071214D5F3B5071214D50BB6071214D565
:101913007FB6071214D595B6071214D5A8B60712C9
:1019230014D5B2B6071214D585EB051214D5DFF022
:10193300051214D511F1051214D53DF1051214D574
:10194300CAF1051214D5B1F3051214D56CD60512DC
:1019530014D5D8D6051214D588D7051214D553D863
:10196300051214D5A9D9051214D597DA051214D581
:101973009EDB051214D59CDD051214D5CFDD0512AF
:1019830014D539DE051214D560DE051214D5DDDF5A
:10199300051214D561E0051214D575E0051214D5AE
:1019A300EBE0051214D5A492061214D51B9506126A
:1019B30014D57C96061214D58398061214D5F6ED29
:1019C300061214D522EE061214D593F0061214D57E
:1019D300D3F0061214D513F1061214D527F106120B
:1019E30014D540F1061214D531F2061214D5D6F2ED
:1019F300061214D5EAF2061214D5DDCC071214D55B
:101A030001CD071214D51ACD071214D54CCD0712E8
:101A130014D57CCD071214D5A9CD071214D50BCE3E
:101A2300071214D51ACE071214D524CE071214D5D3
:101A330031CE071214D5667D001214D5867D0012AF
:101A430014D5C57D001214D5E07D001214D5FF7D99
:101A5300001214D5657E001214D56E7E001214D5C3
:101A6300CB7E001214D5EF7E001214D5B07F001286
:101A730014D5BD7F001214D5CE7F001214D581DB9F
:101A8300071214D599DB071214D5C5DB071214D539
:101A93004280071214D59C81071214D5AA8107121C
:101AA30014D5BD81071214D5D281071214D5E7814D
:101AB300071214D5FA81071214D56E82071214D5B2
:101AC300D382071214D57583071214D539840712EC
:101AD30014D54984071214D55884071214D5DBD8BA
:101AE300071214D5FFD8071214D527D9071214D516
:101AF3004FD9071214D56EBB071214D595BB071225
:101B030014D5B3BB071214D526BC071214D593B151
:101B1300071214D5ACB1071214D5B8B1071214D5F6
:101B2300CCB1071214D5EAB1071214D5F4B10712D8
:101B330014D5FEB1071214D511B2071214D597B2FA
:101B4300071214D50CB3071214D53BB3071214D5DF
:101B530089B3071214D5D8B3071214D5F3B30712F8
:101B630014D5FDB3071214D50EB4071214D551B40E
:101B7300071214D536DB071214D50080061214D5CC
:101B83002A80061214D54780061214D55A800612ED
:101B930014D57080061214D5CE80061214D5068192
:101BA300061214D5FA84061214D53F86061214D5EC
:101BB3007286061214D5D586061214D535880612F8
:101BC30014D55D88061214D57288061214D582883E
:101BD300061214D5C688061214D52189061214D507
:101BE3003189061214D572D3071214D58CD3071278
:101BF30014D5B4D3071214D5CDD3071214D5F1D30A
:101C0300071214D50FD4071214D526D4071214D5EE
:101C130054D4071214D56FD4071214D50CDC071251
:101C230014D544A5071214D554A5071214D559A6E3
:101C3300071214D58BA6071214D5B1A6071214D513
:101C4300D4A6071214D5EBA6071214D525A707129D
:101C530014D58AA7071214D5CCA7071214D50BA83D
:101C6300071214D53CA8071214D573A8071214D56C
:101C7300D8C0061214D5AEC1061214D5D9C10612A6
:101C830014D5F6C1061214D5F1C2061214D533C306
:101C9300061214D5A1C3061214D5F3C3061214D524
:101CA3005BC4061214D53DC5061214D516C606121A
:101CB30014D59791071214D5EC91071214D561929C
:101CC300071214D57492071214D59B92071214D5D8
:101CD3003E93071214D51F94071214D5419B061285
:101CE30014D56C9B061214D5379C061214D57E9C12
:101CF300061214D50F9D061214D588A0061214D50A
:101D0300FBA1061214D536C8041214D576C80412E2
:101D130014D575CA041214D59BCA041214D596CDD2
:101D2300041214D5D2CE041214D563D2041214D5DE
:101D3300CDD2041214D567D3041214D5BAD3041226
:101D430014D522D4041214D572D4041214D5A4D4F5
:101D5300041214D5A7D4041214D5B7D4041214D57D
:101D6300C9D4041214D518D5041214D5D5D6041227
:101D730014D542D7041214D588D7041214D524D805
:101D8300041214D5AAD8041214D5A6DA041214D551
:101D930045DC041214D58CDD041214D56ADE04125A
:101DA30014D51BE0041214D5DDD0071214D5F7D0D7
:101DB300071214D539D1071214D56CD1071214D5D3
:101DC30086D1071214D59FD1071214D5D2D1071289
:101DD30014D5F4D1071214D519C7061214D54AC75E
:101DE300061214D59EC7061214D56EC8061214D552
:101DF300A4C8061214D5D1C8061214D523C90612D5
:101E030014D541C9061214D565C9061214D58BC958
:101E1300061214D50DCA061214D597CA061214D584
:101E2300C8CA061214D50ECB061214D52CCB061233
:101E330014D55ACB061214D57ECB061214D5B4CBC7
:101E4300061214D513CC061214D535CC061214D5AC
:101E530094CC061214D5CDCC061214D5DBCC0612C5
:101E630014D544F7021214D57EF7021214D5BDF827
:101E7300021214D5EDF9021214D5D7FF021214D5AC
:101E8300B7D8061214D5A0D9061214D5E1D9061273
:101E930014D590DA061214D5C2D5071214D533D649
:101EA300071214D598D6071214D549F5051214D57F
:101EB30068F6051214D576F7051214D5BDF8051288
:101EC30014D515F9051214D55AF9051214D568F964
:101ED300051214D598F9051214D52FFA051214D545
:101EE300CCFA051214D5D8FB051214D570FD0512D2
:101EF30014D5F3FE051214D5BDFC061214D518FD36
:101F0300061214D551FD061214D539FF061214D545
:101F1300D4E8061214D519E9061214D54FE90612AE
:101F230014D576EA061214D51BEC061214D588ECE8
:101F3300061214D5D8ED061214D534B3051214D5F0
:101F430048B4051214D5B3B4051214D59FB50512C0
:101F530014D5EBB5051214D566B9051214D5AEB96F
:101F6300051214D56ABA051214D5B4BA051214D5DC
:101F73001DBB051214D562BB051214D5B4BB0512E3
:101F830014D506BC051214D55FBC051214D5C2BC0A
:101F9300051214D530BD051214D585BD051214D50F
:101FA30089BE051214D5EEBE051214D5B1BF0512B4
:101FB30014D5D4C6071214D511C7071214D536C7C2
:101FC300071214D552C7071214D567C7071214D5C1
:101FD300438D071214D54F8E071214D5328F071273
:101FE30014D5538F071214D51C90071214D5BE9025
:101FF300071214D5EF90071214D56F91071214D559
:10200300CDF6041214D52FF7041214D5C3F7041216
:1020130014D552F9041214D593FC041214D5A9FC57
:10202300041214D56BFD041214D579CB071214D501
:1020330099CB071214D5ADCC071214D5B0CC071227
:1020430014D52CD2071214D562D2071214D57CD220
:10205300071214D5BED2071214D5CED2071214D547
:1020630068D3071214D5DDB9061214D5E7B90612E1
:1020730014D521BA061214D58ABA061214D5A7BAF2
:10208300061214D549BB061214D552BB061214D539
:1020930097BB061214D5C0BB061214D5CDBB0612CE
:1020A30014D53EBC061214D5C9BC061214D517BDEF
:1020B300061214D555BD061214D5BABD061214D591
:1020C300DDBD061214D554BE061214D5ABBE0612DE
:1020D30014D5E6BE061214D51BBF061214D52DBFA8
:1020E300061214D53FBF061214D55EBF061214D5CF
:1020F30067BF061214D522C0061214D56EC006128D
:1021030014D5ACC0061214D53BCE071214D57BCF21
:10211300071214D5E4FF011214D5CBA8071214D566
:102123000FA9071214D557A9071214D53DAB0712EF
:1021330014D5CCAB071214D577FF041214D5008045
:10214300051214D52481051214D55E81051214D508
:102153000883051214D53283051214D5A7850512F9
:1021630014D5E785051214D57D87051214D51A8871
:10217300051214D56C88051214D50F89051214D5D0
:102183004789051214D58989051214D5F88A0512D1
:1021930014D5468C051214D5778E051214D5A58E49
:1021A300051214D5CC8E051214D5D58E051214D56F
:1021B300258F051214D5B78F051214D5E692051293
:1021C30014D56993051214D507DD071214D51DDD47
:1021D300071214D5B695071214D5CC95071214D54A
:1021E3007096071214D5AF96071214D5CC96071222
:1021F30014D5FD96071214D54A97071214D57D9767
:10220300071214D5B897071214D5AD99071214D530
:10221300F4D2061214D59AD4061214D5DBD50612BD
:1022230014D5F3D5061214D5EB88071214D5228AD8
:10223300071214D5818B071214D5BEA3061214D529
:10224300E7A4061214D5E6A5061214D52AA706128A
:1022530014D549A8061214D51BA9061214D591BF8B
:10226300071214D55FC0071214D5B693051214D5FF
:102273007B94051214D58694051214D52F95051257
:1022830014D58E95051214D58A97051214D5FA978D
:10229300051214D5FF99051214D5389A051214D5D1
:1022A300DE9C051214D5069D051214D5909D0512CA
:1022B30014D50B9E051214D56E9F051214D5CB9F12
:1022C300051214D549A0051214D538A5051214D545
:1022D300FCF7061214D523F8061214D531FA0612A8
:1022E30014D558FA061214D5ADFA061214D57BFB91
:1022F300061214D5F3FB061214D5C5B6071214D56E
:10230300DDB6071214D5DCB7071214D5E3B70712ED
:1023130014D50CB8071214D5D4D7071214D533D853
:10232300071214D571D8071214D5B2D8071214D5D1
:1023330076DE061214D59CDE061214D5DCDF0612F7
:1023430014D5D1E0061214D5F8E0061214D591E1A4
:10235300061214D5E5E1061214D500E3061214D5CE
:1023630009CD061214D5ABCD061214D5CBCE061269
:1023730014D51DD0061214D5DBD1061214D5ECC02A
:10238300051214D540C1051214D56AC2051214D51D
:1023930096C3051214D584C4051214D520C705129B
:1023A30014D5D7C8051214D522C9051214D530CBBC
:1023B300051214D5ABA1071214D5FEA1071214D52B
:1023C30081A2071214D50DA5071214D58CCF0712BD
:1023D30014D506D0071214D521D0071214D523C55E
:1023E300071214D526C6071214D58EC6071214D5A4
:1023F3006CC3071214D5B7C3071214D507C4071249
:1024030014D522C4071214D5F2C9071214D54DCA24
:10241300071214D549CB071214D51DB9071214D5C9
:1024230086B9071214D5FCB9071214D517BA0712C7
:1024330014D509DA071214D548DA071214D5BEAB3E
:10244300061214D51BAC061214D5F9AC061214D51A
:102453002DAE061214D55DAE061214D599AF061231
:1024630014D5F6AF061214D5BEB0061214D536B184
:10247300061214D5E3DC071214D5F6DC071214D5C3
:10248300A2D4071214D5B1D4071214D511D507124B
:1024930014D527DD071214D52DDD071214D533DD2E
:1024A300071214D50080041214D50C80041214D51D
:1024B3006E80041214D57880041214D50B81041293
:1024C30014D54781041214D50382041214D516823D
:1024D300041214D56682041214D5F582041214D59D
:1024E3002B83041214D5AD83041214D55C85041216
:1024F30014D53087041214D51688041214D56889AC
:10250300041214D5BE8B041214D5278D041214D5CE
:10251300C48D041214D56C92041214D55A93041268
:1025230014D5F893041214D52494041214D5C0942A
:10253300041214D5D594041214D5F994041214D5A5
:102543005F95041214D57C95041214D5A695041234
:1025530014D52397041214D54497041214D5CA979B
:10256300041214D57098041214D5B798041214D514
:102573002A99041214D5B699041214D51A9A04127E
:1025830014D57A9A041214D5109B041214D58B9B7C
:10259300041214D5BE9B041214D5209C041214D526
:1025A300829D041214D5F29D041214D5A19E041227
:1025B30014D5F79F041214D58FA0041214D5FBA0D1
:1025C300041214D53EA3041214D5CAA4041214D5BC
:1025D300F5A4041214D5DBA6041214D571A80412B1
:1025E30014D57AA9041214D55AA5051214D511A627
:1025F300051214D518A7051214D596A7051214D5DC
:10260300D8A8051214D5F9A8051214D5B1A9051235
:1026130014D55CAA051214D53CAE051214D558B0D6
:10262300051214D5BFB1051214D5C8DB071214D592
:10263300BDD6031214D518D7031214D5A2D703128B
:1026430014D513D9031214D5EBD9031214D5D4DA44
:10265300031214D5EBDA031214D53DDB031214D5A0
:10266300A1DB031214D5E2DB031214D5F5DB03124D
:1026730014D54BDC031214D5A4DC031214D5BCDC33
:10268300031214D549DF031214D5DEDF031214D568
:1026930008E0031214D551E0031214D541E20312EA
:1026A30014D5ABE2031214D57FE3031214D5C2E3AE
:1026B300031214D5DCE3031214D523E4031214D557
:1026C30045E4031214D5EFE4031214D5E7E503122E
:1026D30014D541E6031214D592E6031214D52AE861
:1026E300031214D5A2EA031214D520EB031214D556
:1026F3004DEB031214D5C0EB031214D5E3EB031215
:1027030014D55DEC031214D528ED031214D565ED31
:10271300031214D5C7ED031214D588EE031214D592
:102723008BEE031214D595EE031214D59FEE03120C
:1027330014D5B2EE031214D524EF031214D54DEFC2
:10274300031214D560EF031214D58CEF031214D5C2
:10275300B3EF031214D5D7EF031214D512F00312FB
:1027630014D584F0031214D5ACF0031214D5EDF094
:10277300031214D522F1031214D542F1031214D516
:102783007FF1031214D5B6F1031214D5B6F2031276
:1027930014D5E9F3031214D5FFF3031214D5D6DAD3
:1027A300071214D5EEDA071214D5FC7F001214D5E4
:1027B300DDB2061214D52CB3061214D5CCB406120E
:1027C30014D587B6061214D5C9B6061214D5B2B7F6
:1027D300061214D5BCB8061214D5DEB8061214D5E9
:1027E30028B9061214D56AAD071214D52ED80212D1
:1027F30014D551D8021214D544D9021214D58DD947
:10280300021214D5E5D9021214D543DA021214D5F3
:102813008FDA021214D505DB021214D591DB0212F2
:1028230014D506DC021214D549DC021214D529E0B2
:10283300021214D578E2021214D5ABE2021214D5B7
:1028430022E3021214D553E6021214D5C8E602128B
:1028530014D553E8021214D560E9021214D576EAAE
:10286300021214D5ECEA021214D5B3EB021214D5FA
:102873001CEC021214D51FEC021214D5FCEC02124C
:1028830014D5CCBD071214D5F3EF021214D59FF162
:10289300021214D591F2021214D521F3021214D5A7
:1028A30075F4021214D597F5021214D5EEF502123F
:1028B30014D58BF6021214D556E1041214D5F6E1A1
:1028C300041214D560E2041214D507E3041214D5DC
:1028D30066E3041214D512E4041214D5BBE6041201
:1028E30014D5E1E7041214D565E8041214D542EABD
:1028F300041214D5E7EA041214D58AEB041214D592
:10290300E9EB041214D5A2EC041214D521EE04123F
:1029130014D5DEEF041214D55FF1041214D5B9F205
:10292300041214D5C9F3041214D56FF4041214D588
:102933008EF5041214D5B5AD041214D52DAE0412C0
:1029430014D575AE041214D5B9AE041214D502AF62
:10295300041214D54CAF041214D581AF041214D54C
:10296300FFAF041214D559B0041214D5B2B1041236
:1029730014D531B2041214D548B3041214D56AB372
:10298300041214D576B4041214D587B4041214D5E2
:102993009FB4041214D5BFB5041214D5DCB50412C8
:1029A30014D5AFB6041214D5D3B6041214D5EAB6AF
:1029B300041214D50BB7041214D52DB7041214D571
:1029C3001FB8041214D577B8041214D5EDB9041244
:1029D30014D54BBA041214D56ABA041214D59CBB8D
:1029E300041214D519BC041214D586BC041214D5D0
:1029F300C6BC041214D528BD041214D5D8BD0412C4
:102A030014D5AABF041214D595C0041214D58FC1CE
:102A1300041214D595C2041214D5B1C3041214D5EB
:102A2300BFC3041214D598C4041214D538C50412B4
:102A330014D57CC5041214D591C5041214D5A2C6AD
:102A4300041214D545C7041214D59DC7041214D516
:102A5300C5AE071214D5FEAF071214D5BBB00712CB
:102A630014D51FB1071214D5BA99071214D5D899E2
:102A7300071214D51C9A071214D5429A071214D5BB
:102A8300689A071214D5809A071214D5989A0712D8
:102A930014D5B09A071214D5139B071214D5559B5E
:102AA300071214D5779C071214D5809C071214D5EE
:102AB300899C071214D5929C071214D59C9C07126B
:102AC30014D5BD9C071214D59184071214D57188AF
:102AD300071214D57F88071214D58488071214D5DA
:102AE300F9C1071214D575DA071214D592DC07124F
:102AF30014D566C8071214D546DD071214D5008015
:102B0300021214D55780021214D5C380021214D5B1
:102B13004F81021214D50582021214D54D8202127E
:102B230014D56682021214D58982021214D5AB829F
:102B3300021214D5E982021214D53883021214D575
:102B43006383021214D5C183021214D5688402125E
:102B530014D51085021214D58C85021214D559860A
:102B6300021214D5A086021214D5EC86021214D5D3
:102B73007487021214D5AD87021214D5038802128A
:102B830014D51F88021214D54E88021214D55A8AFE
:102B9300021214D5888B021214D5B48B021214D5E9
:102BA300E88B021214D5098C021214D5188C021268
:102BB30014D5238C021214D5D28C021214D5428D53
:102BC300021214D5CD8D021214D5D58D021214D54F
:102BD300428E021214D57E8E021214D5448F021235
:102BE30014D51790021214D56C90021214D50B91C0
:102BF300021214D56591021214D5AA91021214D5AA
:102C03004394021214D58695021214D570980212B9
:102C130014D55499021214D5389A021214D5499A2C
:102C2300021214D5BB9A021214D5529B021214D568
:102C3300B79B021214D5A79C021214D5CC9C021286
:102C430014D5EA9C021214D5069D021214D5799D5F
:102C5300021214D5889D021214D5109E021214D5A7
:102C63000D9F021214D51A9F021214D5239F02122C
:102C730014D505A1021214D527A2021214D537A226
:102C8300021214D565A3021214D5E4A3021214D5BB
:102C9300FFA4021214D53BA5021214D515A70212E4
:102CA30014D5D2AA021214D5E6AA021214D5F0AA98
:102CB300021214D5FAAA021214D504AB021214D5C7
:102CC3001DAB021214D527AB021214D594AB02121A
:102CD30014D59FAB021214D5C7AB021214D5D2ABD5
:102CE300021214D537AC021214D542AC021214D519
:102CF30066AC021214D58AAC021214D5FCAC0212D3
:102D030014D545AD021214D561AD021214D5D2AD5E
:102D1300021214D51EAE021214D567AE021214D5D8
:102D2300A5AE021214D526AF021214D5CDAF0212EE
:102D330014D59CB1021214D501B2021214D52FB3CB
:102D4300021214D555B3021214D59DB4021214D530
:102D5300D7B7021214D5D5B9021214D5A0BB0212EB
:102D630014D539BC021214D53ABE021214D5EFBEE3
:102D7300021214D528BF021214D58EBF021214D525
:102D830098BF021214D5C1C1021214D500C3021296
:102D930014D557C3021214D502C4021214D5B2C5F6
:102DA300021214D5FFC6021214D51FC7021214D57E
:102DB30074C7021214D575C8021214D59DC8021225
:102DC30014D5FCC8021214D5F4C9021214D56BCA67
:102DD300021214D57ECB021214D5ECCB021214D5F9
:102DE300EBCC021214D545CF021214D56ECF0212CA
:102DF30014D5D4D0021214D556D2021214D5ADD2A2
:102E0300021214D55BD3021214D500D4021214D5C6
:102E130059D4021214D517D5021214D5A9D502120A
:102E230014D508D6021214D54AD6021214D57BD66D
:102E3300021214D5D2D7021214D50080031214D56E
:102E43003280031214D56B80031214D52982031226
:102E530014D5FF82031214D55E83031214D5748430
:102E6300031214D5C084031214D54E87031214D54C
:102E7300288A031214D56F8B031214D5078C0312FF
:102E830014D5138C031214D55C8C031214D59E8DA8
:102E9300031214D5948E031214D5BE8E031214D5C7
:102EA300148F031214D56D8F031214D5E08F031200
:102EB30014D51692031214D59893031214D5839440
:102EC300031214D5CD95031214D50598031214D506
:102ED300029B031214D5119B031214D5A59B031255
:102EE30014D5509C031214D5939C031214D5DC9C67
:102EF300031214D52C9D031214D5909D031214D5DF
:102F0300029E031214D51E9E031214D54D9E031266
:102F130014D58C9E031214D5879F031214D536A0A3
:102F2300031214D5B3A2031214D5E5A3031214D5C7
:102F3300BDA4031214D53FA5031214D574A903121B
:102F430014D5A3A9031214D5FEA9031214D531AACB
:102F5300031214D5A9AA031214D5DCAA031214D59B
:102F63003DAB031214D58DAB031214D55AAC031227
:102F730014D513AD031214D5D7AD031214D551B024
:102F8300031214D5B3B1031214D504B3031214D529
:102F930028B4031214D52BB4031214D55AB4031254
:102FA30014D552B6031214D511B7031214D540B772
:102FB300031214D55EB8031214D526B9031214D51F
:102FC300E4BA031214D516BB031214D558BB03126B
:102FD30014D557BC031214D5CABC031214D5F3BEBF
:102FE300031214D552BF031214D5A6BF031214D56E
:102FF300D5C1031214D5B8C2031214D574C3031276
:1030030014D588C3031214D59CC3031214D5C9C3A2
:10301300031214D5F9C3031214D5B4C5031214D57E
:10302300C6C6031214D51BC7031214D564C70312F3
:1030330014D58BC7031214D553C8031214D5F9C87A
:10304300031214D57FCA031214D5C6CA031214D5AA
:1030530038CB031214D58DCC031214D536CD0312FD
:1030630014D56ACD031214D582CD031214D525CEFF
:10307300031214D5A1D0031214D549D2031214D5C7
:1030830067D2031214D585D2031214D551D3031278
:1030930014D59FD6031214D5D185011214D50986F0
:1030A300011214D5098B011214D54F8B011214D5BB
:1030B300858C011214D5EA8C011214D55F8E01128E
:1030C30014D56991011214D59292011214D5A59CBD
:1030D300011214D5359D011214D51FA0011214D568
:1030E3002CA1011214D58FA1011214D5D7A201125C
:1030F30014D545A5011214D5D7A6011214D564A77A
:10310300011214D583A8011214D510A9011214D5E4
:103113001AA9011214D542A9011214D5E2A9011268
:1031230014D5CDAA011214D59AAB011214D5B7AB9D
:10313300011214D5E0AB011214D50DAC011214D554
:1031430054AE011214D523AF011214D562AF01128C
:1031530014D5E4AF011214D585B0011214D5B7B05C
:10316300011214D5FEB0011214D531B1011214D5D8
:1031730075B1011214D5C4B1011214D5C9B101122C
:1031830014D525B2011214D569B2011214D543B373
:10319300011214D5A8B3011214D50EB4011214D51B
:1031A30089B4011214D5F1B7011214D5F4B8011280
:1031B30014D572BA011214D588BD011214D52ABED2
:1031C300011214D573C0011214D52EC1011214D5E6
:1031D3006DC1011214D545C3011214D562C3011286
:1031E30014D56BC3011214D574C3011214D57FC354
:1031F300011214D59EC3011214D542C5011214D570
:103203009FC5011214D5A9C5011214D5B3C5011266
:1032130014D512C6011214D55CC6011214D55DC7AC
:10322300011214D5B4C7011214D5C5C8011214D59F
:103233000EC9011214D5C8C9011214D5DFCA01126F
:1032430014D5B4CB011214D5FBCC011214D5FFCD88
:10325300011214D5F8CE011214D510CF011214D5D2
:1032630047CF011214D551CF011214D55BCF0112F0
:1032730014D566CF011214D584CF011214D5CCCF47
:10328300011214D52AD0011214D551D0011214D52C
:1032930063D0011214D518D1011214D551D10112E2
:1032A30014D573D2011214D5C6D2011214D5ACD3DE
:1032B300011214D5D3D3011214D543D4011214D55A
:1032C300BFD4011214D51BD6011214D542D7011253
:1032D30014D504D8011214D5D2D8011214D590D91B
:1032E300011214D578DA011214D522DB011214D598
:1032F3008ADB011214D53FDC011214D59BDC0112C9
:1033030014D5F3DC011214D5B9DD011214D5DCDDBB
:10331300011214D597DE011214D5B9DE011214D5AA
:103323001ADF011214D54AE1011214D543E2011246
:1033330014D5EFE2011214D510E5011214D559E5A5
:10334300011214D5A4E5011214D500E6011214D517
:103353005EE6011214D582E6011214D5A6E6011227
:1033630014D5DBE6011214D503E7011214D548E79F
:10337300011214D59CE7011214D5F5E7011214D5F7
:10338300EFE8011214D58DEA011214D5D2EA011225
:1033930014D5FBEA011214D584EB011214D5F7EB13
:1033A300011214D505EC011214D529EC011214D520
:1033B3007FEC011214D59AEC011214D555ED0112CC
:1033C30014D581ED011214D5C4ED011214D527EEE5
:1033D300011214D535F0011214D561F0011214D580
:1033E3001CF1011214D500F2011214D594F201124A
:1033F30014D505E1051214D53DE1051214D55EE19E
:10340300051214D5A0E1051214D504E2051214D552
:103413000EE2051214D51EE2051214D555E205126B
:1034230014D5FEE5051214D5C6E7051214D5AAE98D
:10343300051214D54CEA051214D5D6EA051214D593
:10344300A343001214D54C44001214D52B4500128B
:1034530014D53746001214D55746001214D57947B0
:10346300001214D52949001214D59649001214D517
:10347300674A001214D56D4B001214D5E54B0012A8
:1034830014D5204C001214D5794C001214D5B44C29
:10349300001214D5FD4C001214D5914D001214D511
:1034A300274E001214D5FC4E001214D5CF4F001234
:1034B30014D55D50001214D58350001214D5B050AA
:1034C300001214D5E150001214D5AE51001214D5D8
:1034D300BE51001214D51152001214D51E520012FF
:1034E30014D52B52001214D53452001214D598520D
:1034F300001214D5F652001214D54153001214D5FC
:103503005C53001214D58353001214D5A053001238
:1035130014D5AC53001214D53D55001214D556558D
:10352300001214D5D255001214D5E555001214D546
:10353300F555001214D59956001214D505580012EA
:1035430014D51859001214D5B859001214D5C259FC
:10355300001214D5415A001214D5525A001214D530
:10356300915A001214D5BF5A001214D58C5B001265
:1035730014D5E35B001214D51C5C001214D5725CE5
:10358300001214D5905C001214D5DE5C001214D521
:10359300A95D001214D5F75D001214D5445E001224
:1035A30014D5C75E001214D5F15E001214D5275F3F
:1035B300001214D5365F001214D5955F001214D58E
:1035C3000D60001214D54E60001214D59E600012D7
:1035D30014D5C960001214D5E360001214D5FD6040
:1035E300001214D5D261001214D5DC61001214D577
:1035F3001762001214D52762001214D578620012E4
:1036030014D58C62001214D5AE63001214D5C363B3
:10361300001214D55664001214D5CA64001214D5CE
:103623006F65001214D57A65001214D5DD66001299
:1036330014D5F966001214D54567001214D5B36783
:10364300001214D5E567001214D5FF67001214D5D4
:103653005F68001214D5FE68001214D54969001280
:1036630014D59C6B001214D5346C001214D5AB6CBA
:10367300001214D5086F001214D5206F001214D550
:10368300236F001214D52F6F001214D5436F00124D
:1036930014D54B6F001214D5826F001214D57670B7
:1036A300001214D50071001214D58271001214D5C2
:1036B3000272001214D5D972001214D5FB720012D3
:1036C30014D59473001214D5F173001214D5F47346
:1036D300001214D56374001214D5AF75001214D5FB
:1036E300C276001214D54D77001214D560780012FB
:1036F30014D52779001214D55879001214D57E7980
:10370300001214D58779001214D5B679001214D596
:10371300667A001214D5167B001214D5897B001229
:1037230014D52C7C001214D59F7C001214D5DE7C9A
:10373300001214D5277D001214D55FAC071214D5DF
:10374300D5AB071214D5ADFE031214D522FD031217
:1037530014D511FC031214D559FB031214D5C6F961
:10376300031214D5E4F6031214D510F6031214D57C
:1037730010F5031214D531F4031214D56BDC0712C0
:1037830014D591BD071214D5E7FF051214D550DCEB
:10379300071214D5BEDC071214D581FF051214D508
:1037A300FEFE051214D565E6061214D530E50612A1
:1037B30014D5AEE4061214D5A6E3061214D50BFFF6
:1037C300011214D531FE011214D567FD011214D56F
:1037D300D6FB011214D59FFB011214D571FB011204
:1037E30014D525FB011214D58EFA011214D5FEF956
:1037F300011214D5D8F9011214D58DF9011214D57B
:1038030057F9011214D5DAF8011214D575F801121B
:1038130014D524F8011214D54CF7011214D5BCF6B3
:10382300011214D570F6011214D5EBF5011214D55B
:10383300A6F5011214D58AF5011214D532F401123A
:1038430014D5FFD9071214D504F4011214D599D94C
:10385300071214D584D9071214D574D9071214D5B5
:10386300E3FF061214D5FDFF021214D5BCD70712CD
:1038730014D5B1D7071214D5A2D7071214D5D1F393
:10388300011214D555F3011214D550F6061214D5AE
:10389300ABF4061214D5DDD6071214D5B9F306120C
:1038A30014D5FEF2061214D521D6051214D5C8D5A7
:1038B300051214D5CCD6071214D593D5051214D5F9
:1038C30038EE021214D55ED5051214D52AD5051289
:1038D30014D5BDD4051214D5A5D4051214D580D49E
:1038E300051214D551D1051214D524CF051214D5C0
:1038F30024CD051214D5AACC051214D55BCC051220
:1039030014D515CC051214D5B7CB051214D5D49004
:10391300061214D56D90061214D53A8F061214D5DB
:10392300AF8D061214D586AD071214D5418B06123E
:1039330014D5CC89061214D57089061214D5618961
:10394300061214D5A9B90600000080FBE473000039
:1039530000002001C985000001002001C985000085
:1039630002002001C885000003002001D08500006B
:10397300040042016D800000050042017E800000CA
:1039830006004201A080000007002001AB80000078
:10399300100042018F800000110020017D0800000B
:1039A30000404201A080000000804201D281060055
:1039B3000000101100000700000030330000070072
:1039C30010003033000007000140203300000700DF
:1039D30002402033000008000000203300000C00E8
:1039E3005500393300000C001C0042330000120064
:1039F30055002101000014000E00422200000004C3
:103A03000000210400000204000029040000030454
:103A130000002904000005040000290400000C0430
:103A23000000390400000D040000390400002A04DA
:103A33000000390400000207000029040000020707
:103A430000021805CB8502070003300500000207BA
:103A530001032205F484020702032205F884020706
:103A630003031801CE850207060318010000040BA7
:103A730000001B05DC84040B000129050000040B76
:103A8300030129050000040B060129040000040BAF
:103A930000022105BB85040B01022105C385040B2C
:103AA30002022105BB85040B03022105C185040B1A
:103AB30004022105BB85040B05022105BD85040B0A
:103AC300000321040000040B00042105BB85040B43
:103AD30001042105B985040B050521050000040B2C
:103AE300080521050000040B0B0529040000040B45
:103AF300100528040000040B00062105BB85040BF8
:103B030001062105C385040B02062105BB85040BB1
:103B130003062105C185040B04062105BB85040B9F
:103B230005062105BF8500000000000001200E39B5
:103B3300000102200E39000103200E390100042088
:103B43000E3900010500801E000006000000000081
:103B53000700463700000800642200000000000050
:103B630000000A00000000000B20582210000C0285
:103B7300A63700000D00000000000E200E390001E2
:103B83000F200E39100000000000000000000000AC
:103B93000000000000000000130078230000000074
:103BA300000000001500AC1C41001600AC1C5000C6
:103BB3001701782300001800000000001900CA2232
:103BC30000001A00CA2200001B005A2310001C0127
:103BD300B81900011D01B81900011E00F4221003D9
:103BE3001F018A38080020008C2400002100263998
:103BF30000002200001D10002300A6370000000073
:103C03000000000000000000000026013422100024
:103C13002700000000002809222200002900382480
:103C230010002A60461900032B22582210002C0092
:103C33006E2410002D026E2410002E0000000000E0
:103C43002F0000000000300012231000310100009B
:103C530000003200000000003300000000003400C8
:103C630000000000350000000000360000000000E6
:103C73003700000000003800000000003901B819C7
:103C830000013A00000000003B00000000003C007F
:103C9300000000003D00000000008F000100F21B47
:103CA30087000100AC1E35000400701E25000200D1
:103CB300741E26000200761E27000200781E2800CC
:103CC3000100821E29000100831E84000400841E5B
:103CD30086000100881E2A000100891E2B000100B6
:103CE3008A1E2C0001008E1E2D000800DA1B2E00F8
:103CF30001008F1E2F000100901E30000100911E55
:103D030031000100921E32000100E21B330001006A
:103D1300E31B34000100931E36000100E41B38004E
:103D23000100941E390001008D1E83000200AA1EAB
:103D330063000100EF1B640001008B1E650001009E
:103D43008C1E6D000100F01B71000800D21B660081
:103D53000100A91E430001009A1E440002009B1E9D
:103D6300450001009D1E460002009E1E47000800FC
:103D7300E71B48000100A01E4B000100A11E040028
:103D83000100AD1EA1000100B01E37000100AF1EEF
:103D930088000100AE1E3C000100E51B3D00010050
:103DA300951E49000200A21E67000100F11B4D0091
:103DB3000200A41E4E000100A61E4F000200A71E13
:103DC3003E000100991E51000100961E52000100A1
:103DD300971E53000100981E54000100E61B0000CB
:103DE300000000000001363601010001020100015C
:103DF3000301000104010606050200000701003467
:103E03000801000F090401010D0100FF0E08000065
:103E130017020000190100FF1A0100011B0100FE37
:103E23001C0100081D0200001F0100012001000108
:103E3300210200002301000F2402000026010001DB
:103E430027010008280200FF2A0100072B01024076
:103E53002C0100002D0100012E0100012F0100FFA4
:103E630030010B1D310800003A0100083B01000F2F
:103E73003C0100013D0100FF3E040000420400003C
:103E8300460400004A0400004E04000052040000EF
:103E9300560400005A0400006A00780020242624F7
:103EA3002C246C00F000CC23D223D8236B00F00029
:103EB300E423EA232C246600F000E423EA232C24E1
:103EC30067001400F623FC2302246900140008246D
:103ED30014240E24EE22E8039023AE23A8236400C7
:103EE300010000000000C623630001000000000081
:103EF300C6236200010000000000C6236100010028
:103F030000000000C6237000010000000000C6236B
:103F130001037103010301030103010301032203ED
:103F23000203010310030003000300030003000363
:103F330000030003420300032403060300030003FA
:103F430004031203250323032503230304030403A8
:103F530000030003000344030003000323030003DF
:103F630065032100350381030003050300030003F8
:103F730000030003250323030300710030016000E5
:103F83001100700031022003500480001000610012
:103F9300000014006300730072006200430000001D
:103FA30013000600000000000400120000000000DF
:103FB3000000000004000400370037003C02440006
:103FC30000000000000000006500000035008100D3
:103FD30000000500000083000000010171010101E0
:103FE30001011101010131010101010180011001F0
:103FF30061013B001400630173017201620143011B
:104003000001130106013D01350004011201000105
:1040130000010001000104010401330133013C01EB
:104023004401320136000001000165010001350041
:104033008101000105018201830100010304710470
:104043000204600411047004020402040104020463
:10405300100461040004140463047304720462040E
:1040630043040004130406040004000404041204BB
:10407300000400040004000451046400000400046C
:104083000004440400040004000400046504000464
:10409300350481046400050400048304000403025E
:1040A3007102300160021102700201020202020277
:1040B3008002100261023A0041006302730272023D
:1040C30062024302000213023800000200020402EB
:1040D300120200020002000200020402040237007E
:1040E30037003C024402000239000002000265026C
:1040F30000023502810200020502820283020002ED
:1041030036000100060000000F0000000000000060
:1041130000000000000003FFFF00000403FFFF0096
:1041230000FFFF0FF4010005C40403200001000099
:104133000B000000000000000003010F000000005E
:10414300000000000000000000000000000000006C
:1041530000000000000000000000000000009425A3
:10416300D0259A25C224A025D625A025E225A6255B
:10417300C224A025D625AC25C224B225C224B82545
:10418300C224BE25C224C425C224CA25C2240000D9
:10419300000000000000000000000000000000001C
:1041A300000000000000000000000000000000000C
:1041B300000000000000000000000000D6281300EB
:1041C300C0381F0088281F808E280100D6280200CF
:1041D3000A28030010280400162805001C280600DE
:1041E3002828300046283100402832005228330066
:1041F300582835005E283400642836006A281100E8
:10420300762814007C2815003A28FFFF00000A00D6
:10421300000002000000040000000800000010007D
:1042230000002000000040000000800000000001AA
:10423300000000020000000400000008000000105D
:104243000000002000000040000001D43006FE30D2
:1042530008F8300B163110EC2D02DA3005EC30077C
:10426300E0300CBC300DC83064E82BFF000007ECD5
:10427300FDFDFDECDCDCCCBCACAC9C9C8C7C7C6C98
:104283006C5C5C5C4C4C3C3C2C2C1C1C03EAF5E544
:10429300D5D5C5B5A595958585757565655555457B
:1042A300453535252515150500160F00000B150B93
:1042B300020002220F3300000E5A6967426565410E
:1042C3006C6C69616E6365303901030507090B0D79
:1042D3000F00020406080A0C0D0001191618161621
:1042E30018230300303017181921301B1D1F3030DD
:1042F3003016181920231A1C1E3000393D3F373C55
:104303003C362C442D00034A49434E181A25050216
:104313000C0E020B040B0A0708000F020402010132
:1043230001010902E803000000BE040A0E00E803CD
:1043330000007F000000081E0404091003030A0C98
:1043430010080C2800041E0903010C05081500FFC2
:10435300E004124BD3A2E792AF22E4F0A3F0A3F060
:1043630022A312435DA3F0227F0C021202E0F508A0
:10437300E4F509F50AF50B227401F090051CE064DD
:104383000F2274091215057F04021202A3A3E0246D
:10439300F5C394132290053C126EC37A147B00225A
:1043A300C082C083901D0E74A0F0A37434F0A37474
:1043B300B2F0A37434F0901D127488F0A37434F037
:1043C300A37482F0A37434F0A374BEF0A37434F026
:1043D300A374C4F0A37434F0A374B8F0A37434F0DA
:1043E300A37470F0A37434F0901D1E7494F0A3743E
:1043F30034F0A3749AF0A37434F0A3748EF0A3740E
:1044030034F0A374CAF0A37434F0901D2F126450D7
:1044130060061266BA12212C901D2C125B7C740864
:10442300F0A3E4F0A3F0901DCFF0901D31F07C0BCE
:10443300FDF97A327B1D1220787C0B7D0079007A9E
:104443003D7B1D122078025B8574F7120E4E74F7C4
:104453001215E8EAFEEBFF1259A37405124519740D
:1044630003F0EE2402FAE43F1244F3242DFCE43F6C
:10447300FD8C828D831246311245026008124D7BFA
:1044830074FFF0A3F0EE242BE43F1C1CFD8C828D03
:1044930083A3E0C0E08A828B831259B4D0E0124533
:1044A30002888289831261AC2403126C8D12232A41
:1044B300740812187F7403F0900531121309740203
:1044C3001215CA7903EEFAEFFB12365C7402121569
:1044D30005E9F5087007EEFAEFFB123542A90874F7
:1044E30009024D8BF582E43FF5831278F81261A13E
:1044F300FB8A828B83124511E8F0A3E9F0EE2212C6
:104503006EE1124511E8F0A3E912745DE022124551
:10451300FC8A828B8322F0A3E4F012452122EE244D
:104523000DF582E43FF5832274F1120E4EEAFEEBA1
:10453300FF8C088D09890A1246068A828B831245ED
:10454300FC740F12187F12461FE824FF18E934FF8A
:10455300F988828983E50A12461190053612460EC0
:1045630090053512460E741112187F12461FEE2461
:1045730004FCE43FFD880B8A828B83E0F50C8C827C
:104583008D83E0250CC3950B126EDDE8F0A3E912D1
:104593005910A3A3A3A3A3A3A3A3E06403700812C6
:1045A3005C6CF0A3E4800312491212451C7409F0F9
:1045B300750C32750D1D750E00780C1214EE124930
:1045C3000612206C7403121505750CFF750DFF7828
:1045D3000C1214F2AC08AD097903EEFAEFFB1236B4
:1045E3005C7402121505E9F5087007EEFAEFFB1289
:1045F3003542A9087F07021202E024FFF8A3E03442
:10460300FFF922EE2402FAE43FFB2212463112465E
:104613001522F0E824FF18E934FFF922E0F50CA392
:1046230012463112461588828983E50CF022E08810
:1046330082898322C082C083901D4EE0C3940840C8
:104643000474078001E08A828B83F033333354F898
:10465300F9025B8574F0120E4EEAFEEBFF890C8CB7
:104663000E8D0F750A00A2AFE433F50BC2AF901D98
:1046730048803F12473F503712475064037030EE73
:1046830024F9FEEF34FFFF850882850983A3A3E0A5
:104693002405FCA3E03400FDEEFAEFFB12232AEE1F
:1046A30024FF1EEF34FFFF7410250AF50A150C12C0
:1046B30058DD1278F4E50C6006E508450970B4E5A9
:1046C3000BA2E092AFA2AFE433F50BC2AF901D484B
:1046D300802C2402FAE43509FB8A828B83126ECC88
:1046E3002406F582E438F58312475D8A828B8312B0
:1046F3004745A3A312475D050A150C1258DD12584E
:10470300F26022124750640270F112473FE50840FD
:10471300C1124A40A2E550E3850E82850F837401DE
:10472300F0E50C70D6E50BA2E092AF8E828F83E5A5
:104733000AF0EE24FFFAEF34FFFB8035124A4BA256
:10474300E622124749221272C1A3A3A3228508823B
:104753008509831272BB1268F522E08E828F83F083
:10476300EE24FF1EEF34FFFF2212372874041215C4
:10477300057F0802120274EC120E4E74F51215E84E
:1047830089138A128B0F851882851983E4F004122A
:1047930015C2123452E9F890051BE0292434F508B8
:1047A300FA7B0012208A8A0A8B0BAE0AAF0BEE4FFC
:1047B30070030248FAEE2402F50AE43FF50BA80859
:1047C300EE28F8E43FF9850A82850B831244FB2423
:1047D30004F510E43FF511851082F583E4F09005AC
:1047E3001BE0FCF8C3E498F895E0F9850A82850B91
:1047F30083E028F508A3E039F509900519126B85C4
:10480300750E00780C1214EE7D00AA08AB09122075
:104813006C7403121505AC18AD19740112187FE0FE
:10482300F9E50824FFFAE50934FFFB1234588A82BC
:104833008B83E4F0EA24FFF508EB34FFF509E50F79
:10484300C454F0F9901DD0E0C4333354C0F890053C
:1048530015E0A2E0E43313134849440F12491AE563
:1048630012C454F04513850882850983F0A808858E
:104873000A82850B83E0FA851082851183E02AC3BF
:1048830098F0850A82850B83E8F0A3E509F01249C5
:104893001212451CE4F0740A12187FE4F075083D07
:1048A30075091DF50A78081214EE12490612206CD8
:1048B3007403121505851882851983E06009EE24B7
:1048C3000E125A394408F0123644E9F9E4F508F5B2
:1048D3000978081214F274041215CAEEFAEFFB12E7
:1048E300365C7402121505E97006EEFAEFFB800BD5
:1048F300EEFAEFFB1220907A007B00740B12150581
:1049030002436B7C0B7D00EE2418FAE43FFB22127A
:1049130059A7E4F0A322E08508828509831249247C
:1049230022F0126B592274F3120E4E8A0A8B0BA2D9
:10493300AFE433F50CC2AF750800750900901D484C
:10494300802C124B675024850A82850B83A3A31204
:104953007D218E828F83A3A31266BD12364AE9603E
:104963000A12498DC2E6F08E088F09124B5C124E73
:104973001570CFE50845096006124A47D2E6F0E50F
:104983000CA2E092AF7F0502120212499122126B30
:1049930072E02274F0120E4EEAFEEBFF8C0C8D0DCA
:1049A300750E00A2AFE433F50FC2AF7508007509A9
:1049B30000901D488020850A08850B09124A47D2BA
:1049C300E4F0E508124A40D2E7F0E50A24FBF58259
:1049D300E50B34FFF583E0F50AA3E0F50BE50A45A3
:1049E3000B6043E50A1257C8350BF583E0A2E75085
:1049F300D9850A82850B83A3A3121309AC0CAD0DD1
:104A0300EEFAEFFB1236507402121505E960BBE5AE
:104A130008450960A1E508240D124A536401700694
:104A2300124A5CD2E4F0E50FA2E092AFE508450933
:104A3300600612353C750E01A90E0247741257F237
:104A4300124A5622124A4B22E5082411124A5322D3
:104A5300F582E43509F583E022850882850983120E
:104A630072BBE02274F2120E4E74FE1215E8750C3E
:104A730000750D00851882851983E4F0A3F0A2AFB9
:104A830033F50AC2AF901D48E0FEA3E0FF8035EE88
:104A930024FBF582EF34FF1278F2780C1214F2EE55
:104AA300FCEFFD7A487B1D1220C07402121505EE3F
:104AB300FCEFFDAA18AB191220AEAE08AF09901D8A
:104AC3004EE014F0EE4F6027124B67501DEE240B9F
:104AD300F8E43FF988828983E024FFF0A3E034FF00
:104AE300F08882898312645060A5124B588099E53F
:104AF3000AA2E092AF901D4EE0603190051CE06485
:104B03000F6006901DCFE070237A267B1D12373489
:104B13009084C41213057A267B1D1237287404125D
:104B23001505800874F0125DA3123530AA18AB196D
:104B33001220B48A0A8B0BAE0AAF0BEE4F6013122E
:104B4300346412498DA2E28E828F83A350D674E916
:104B530080D4024E1D8E0C8F0DEE24FBF582EF34B4
:104B6300FFF58322124991A2E72274F7120E4EEA4F
:104B7300FEEBFF1234641259B112394FE96401900C
:104B83000538700AE02401F8A3E034008004E0F85B
:104B9300A3E0F9125FFF1263A8901D4EE07021900D
:104BA300051CE0640F70197A267B1D12373490843C
:104BB300C41213057A267B1D1237287404121505B7
:104BC300A9A8C2AF901D4EE004124BD3A2E7800DFB
:104BD300F0E9A2E7E433F8E922E508A2E092AF02A4
:104BE3005E3F74F7120E4EEAFEEBFF124C1AF01200
:104BF3003464EEFCEFFD7A487B1D1220BAA9A8C2EB
:104C0300AF901D4E12435390051CE0640F7005795D
:104C1300081235FC025E3F124991C2E42274F71276
:104C23000E4E74EA1215E8EAFEEBFF900515E060FC
:104C3300408518828519837401F012187FE4124CA1
:104C4300F212187FAA82AB8312232A8E828F8312D9
:104C53004A62C0E0740A12187FD0E0126EF2740B3D
:104C630012187FAA82AB83123674AA18AB19122AC0
:104C7300C87416024D8B74F7120E4EEAFEEBFF1248
:104C83003446E9F974DC69601E74DD69601974E403
:104C930069601474F369600F74DE69600A74DF6914
:104CA300600574DB697007EEFAEFFB123602025EF1
:104CB3003F74F7120E4E74EB1215E8EAFEEBFF8514
:104CC30018828519837406124CF212187FAA82ABDC
:104CD3008312232A126EF7740A12187FAA82AB83F7
:104CE300123674AA18AB19122AC87415024D8BF028
:104CF300EE2413FCE43FFD74022274F7120E4E748B
:104D0300F71215E8EAFEEBFFEE242D125A3960651F
:104D13001255CAAA18AB1912232A740812187F74E1
:104D230003F0900531121309124D7B1213099005FC
:104D330044E0F974041215CAEEFAEFFB12344C7412
:104D430004121505E9F974DC69602374DD69601EDA
:104D530074E469601974F369601474DE69600F7434
:104D6300DF69600A74E869600574DB697007EEFA4D
:104D7300EFFB1236020244E2EE124D8022242BF5A1
:104D830082E43FF583227403121505025E3F74F239
:104D9300120E4E8A088B09750C00750D00750AE713
:104DA300A2AFE433F50BC2AF901D488003124B58FA
:104DB300124E156035124B6750F3125A3664017068
:104DC300ECEE242FF582E43F124FC4E06870DE78E6
:104DD3000C1214F2EEFCEFFD7A487B1D1220C07416
:104DE30002121505901D4EE014F0E50BA2E092AF00
:104DF300EE4F6013EEFAEFFB12346479F0EEFAEF44
:104E0300FB123602750A00A90AAA08AB0912360278
:104E1300800DE0FEA3E0FFEE4F2274021215057F22
:104E23000602120274F4120E4E74F71215E8EAFE2B
:104E3300EBFF8E828F83A3E064F37003024ED18E67
:104E4300828F83A3E064DF7003024ED18E828F834F
:104E5300A3E064E860788E828F83A3E064DB606EF6
:104E63001234A6E9F508705EEE240E125A39605624
:104E7300124EDB1234EEEA4B604C740812187F12A8
:104E83004EE51213097508FF7509FF78081214F22D
:104E93008E828F83A3A3A3A3A3A3A3A3E0F9740484
:104EA3001215CA12344C7404121505E9F50874F38B
:104EB3006508601274DF6508600C74E865086006B5
:104EC30074DB6508700F8E828F83A3E508F0EEFA1A
:104ED300EFFB1234B2024385EE240FFAE43FFB7971
:104EE300092274021276BA74FFF0A3124EF2221250
:104EF3004EF6221261B5A3A32274F5120E4E8A0850
:104F03008B097E008A828B83A3A3A3A3A3A312434B
:104F13008F40027EE88A828B83A3A3A3A3A3A3A3C8
:104F2300A3A3A3E0C3941040047EE880138A828B7A
:104F330083A3A3A3A3A3A3A3A3A3A3E0640F600AD0
:104F4300901DACE0540870027EE8EA240BF582E47D
:104F53003509124FC4A3A3A3A3A3A3A3A3E0C39898
:104F6300500CEA240B124A53640F60027EE890054A
:104F730035E0F47003A3E0F470027EEC7A237B0047
:104F8300122126901D2F1266CD901D2F12645060A2
:104F930029850882850983A3A3A982AA8389088A0C
:104FA30009750A0078081214EE7C237D001266BA94
:104FB30012206C740312150580027E1AEEF9027832
:104FC3005BF583E0F88A828B83A3A32274F5120E28
:104FD3004EEAFEEBFF8E828F83A3A3A3A3A3A3A317
:104FE300A3E090051C12759D9005371275839005FB
:104FF300171275A2901DD0F0F9121B20901DD0E05E
:105003006018EE2404FAE43FFB7950121B08EE24E7
:1050130006FAE43FFB79E1121B08901DCF12437B94
:105023006004740180027400901D3112758912149A
:10503300EE7C0B7D007A327B1D12206C74031215FB
:1050430005EE2418F508E43FF50978081214EE7C00
:105053000B7D007A3D7B1D02785374F7120E4EEAE6
:10506300FEEBFF8E828F83A3E070061266BA1234C2
:10507300AC8E828F83742C125DA312360E025E3FB8
:1050830074F7120E4EEAFEEBFF901D2F1264506070
:105093000D1266BA901D2FE4F0A3F012212C8E821C
:1050A3008F837408125DA3122AC8025E3F74F6123E
:1050B3000E4E901DCFE06013901D31E0700D125025
:1050C300D112345EEA4B60031235420271FD900542
:1050D30017E0FB900537E0FA90051CE0F92274F421
:1050E300120E4E74E71215E8EAFEEBFF750B018E04
:1050F300828F83A3A3A3A3A3A3A3E0A2E25068EE9A
:10510300242BF582E43F127D1F12519F12346AE96A
:1051130070559083E1E064017005750B00804812BF
:1051230051A71214EE7C0B7D0074111215C21220CC
:105133006C7403121505123644E9FA740E1215BA8B
:105143008808890978081214F275083075090078FF
:10515300081214F2124D7B121309126E9379011285
:105163003662740612150585188285198374101228
:105173004CF212187FAA82AB8312231E124D7B12AC
:105183006EBF740B12187F1263A8740D12187FE59B
:105193000B125C16122AC87419024387EE2413FA01
:1051A300E43FFB22EE240812759122C082C0839053
:1051B3001DD0E060031236B6025B85C082C08390C7
:1051C3001DC7740EF0A3741DF0A37412F0A3741D15
:1051D300F0A3741EF0A3741DF0901ED4743FF0A3CB
:1051E3007440F0901DB17440F0A37434F0901D53DB
:1051F3007476F0A37434F0901D55747CF0A374346A
:10520300F0901DACE044028001E4F0025B85C082B3
:10521300C083EAFCEBFD7903026221C082C083EA0A
:10522300FCEBFD7905026221C082C0837908027319
:105233008EC082C08374FE1215E8901D5B742AF041
:10524300A37435F0901D5D7424F0A37435F0800DC4
:105253007A487B1D1220B4125C0C123632901D4822
:1052630012645070EB901D4A126450600F7A4A7BAF
:105273001D1220B4125C0C12363280E9901D48E4F2
:10528300F0A3F0901D4E12435E740280027411125B
:105293001505025B8574F6120E4EE9FF74FD29F5C0
:1052A30082E43442F583E493FEFA7B0012208AEA17
:1052B3004B6011EA2E12639E8A828B83A3A3A3A35E
:1052C300E4F0802C7A027B0012208AEA4B601D7482
:1052D300E72FF582E43442F583E4938A828B83F0EB
:1052E300A3741AF0901DA7E0F91220967A007B00B0
:1052F3000271FDE9FC740629F8EAA2E0501EE87584
:10530300F00A84E5F0F96014740A28C399F8E9C334
:1053130094054004740A28F8740B28F8ECC394131A
:1053230040047A1480027A06EA2879002409F850A6
:1053330001097A0A7B00120ACFE8F90214D2C0826B
:10534300C083901DACE05402600A122ACEE96004C7
:10535300790180027900025B85C082C083901DAC15
:10536300E054026016901D4EE0700C12644D600B09
:10537300E0C81258EA5004790180027900025B8583
:10538300C082C0839083DEE0F8901D50E0C3985044
:105393000512208A80047A007B00025B85C082C0EC
:1053A300831236327900025B8574F7120E4E74FE57
:1053B3001215E8851882851983EAF0A3EB12551BB1
:1053C300A3A3A3A3A3E0600A14606024FE606902A0
:1053D300549C90051CE0640F6018123608E97012A3
:1053E3008518828519831266BD901D571259B41210
:1053F300394F900544E0C0E0851882851983126116
:105403007FD0E012551B74141276B6127D217A4AAE
:105413007B1D1220AEA8A8C2AF901D50E0041266F7
:10542300D379201235FC7402024D8B8518828519BD
:10543300831272C3741580D0851882851983125420
:10544300FEA3A3E06053851882851983E02402F844
:10545300A3E03400F988828983127AF4E0C0E085FE
:105463001882851983E0FCA3E0CC2406F582E43C92
:10547300F583D0E0126EFF888289831266CD85188A
:10548300828519831257E685188285198360131262
:105493005503600512550B4043AA18AB1912363257
:1054A300808412550360F212550B501C1258FAFAFD
:1054B300851882851983125505F8741D1263993472
:1054C30043F583E4936A6014851882851983125522
:1054D30003640870C41258FA640870BD1258FA14B1
:1054E300125523240AC0E08518828519831259B402
:1054F300D0E01255230402540BE0F8A31261CC222E
:10550300E0F8A3E012552A22851882851983126ECA
:10551300D012552BC3940A22125535F58388822263
:1055230012553512552A22C82406F582E438F5832C
:10553300E0221276BAE0F8A3E022C082C083901D75
:105543005F12645060081272C412394F80027900EE
:10555300025B8574F7120E4EEAFEEBFF12452174CF
:1055630001F0EE2430F582E43FF583126C2D1244F2
:10557300FB2432125A39C0E0EE2413F582E43FF5DE
:1055830083D0E0F0EE2433125A39C0E0EE2414F550
:1055930082E43FF583D0E0F0EE242CF582E43FF57E
:1055A300831213091255CAEE242E125A39F91236F0
:1055B3005C7402121505E9F5087007EEFAEFFB12A9
:1055C3003542A908025E3FEE2423FCE43FFD22C0DE
:1055D30082C083123608E9600479208002790102CF
:1055E3005B85C082C083EA1257C8125689D2E00293
:1055F300520DC082C0831256836401701112568EFD
:10560300400C8A828B83A3E0F9123602806FEA246E
:1056130010125686A2E650128A828B83A3E0F99079
:105623001D591259B412394F8053125683640170B5
:105633000D12568E50088A828B83743080368A828C
:105643008B83A3E0641B8A828B837004742280247F
:10565300A3E0700D125683F874F2126399344280FA
:105663000B125683F874E71263993442F583E4937B
:105673008A828B83F0901DA7E0F9122096025B8546
:10568300EA240DF582E43BF583E022EA1257F23B6C
:10569300F583E0A2E32274F7120E4EE9FE12644D85
:1056A30070030257BFEE6011741B6E7013E0C812D3
:1056B30057C26405700302578A1272B3E402578E0D
:1056C30074E96E70621257DE700B122AD4E960051A
:1056D3001257F8606279EE121A8A901D511257DB45
:1056E300901D51603B1257FB901D51700B1257DBFD
:1056F30014F0121C400257BF1257E6C2E7125906B4
:105703001257C26403700C126EC91257C812553077
:10571300D2E2F079ED121A8A1257CE12394F807500
:105723001272B674E9806474E16E703E122AD4E991
:1057330060551257F8705090053EE0C0E0126EC9F4
:105743002412F582E438F583D0E0F090052DE0C013
:10575300E0901D511254FC1254FCD0E0F090052D42
:10576300E004F07901121C288052741C6E701890AA
:105773001D511266BD901D611259B412394F901D0F
:1057830051E4F0A3F080351272B3EEF0901D511284
:1057930066BD123530126EC9126E9BE054806010E4
:1057A300900544E0F9121B44900543E0F9121B38BD
:1057B300901D51E4F0A3F079101235FC025E3F24F2
:1057C3000D12552D222411F582E422901D511266EB
:1057D300C1901D551272BD22E0F8A3E0C824121235
:1057E300552D22E0F8A3E0C81257F21255302224B7
:1057F30010F582E422901D51126ED0126E9FE05478
:10580300042274F4120E4E750A00750B00A2AFE465
:1058130033FFC2AF12644D60030258C21259B11272
:10582300394FE94410F8901D48800985080A850915
:105833000B1258DD1258F270030258C2124A47582D
:105843006870E8780A1214F2AC08AD097A487B1D37
:105853001220C07402121505901D51E508F0A3E54E
:10586300091259061258EA405D901D4FE014F0EFFB
:10587300A2E092AF901D51E0240EF8A3E03400F9AA
:10588300880889098882F5831266BD901D511259D3
:1058930000F91234F4E9901D4CF012590EE05480D3
:1058A300901D516026126ECC241312552DF9121B34
:1058B30044126EC9241412552DF9121B388018EFA7
:1058C300A2E092AF8011901D4E80A11257E6A2E193
:1058D300B3E433F9121C2802438AE50824FBF5825A
:1058E300E50934FFF58322241112552DA2E7221274
:1058F30078F8E508450922851882851983124749F6
:10590300A3E022F0901D51126ED022A3E4F085088B
:10591300828509832274F7120E4EEAFEEBFF1236DC
:105923002CEE2410125A39A2E3400C125A366401A9
:1059330070059083DC80039083DDE0F9EEFCEFFDDE
:105943007A487B1D1220C6E96046EEFAEFFB901DF4
:105953005B1259B412394FEE240E125A39540470A3
:1059630020A8A8C2AF901D4FE0041266B3FAE8A2C4
:10597300E792AF1259A3A3E05401702112353C8082
:105983001CEEFAEFFB901D531259B412394F800DE0
:105993008E828F83A374F1125DA3123530025E3FB2
:1059A3001259A722EE240EF582E43FF58322901DBF
:1059B3005D1272BD22C082C08312353C025B8574C6
:1059C300F7120E4EEAFEEBFF7900901DACE0540295
:1059D300700CEE2430125A395404600279E8901D99
:1059E300ACE05460700CEE2430125A395402600259
:1059F30079E88E828F83A3A3A3A3E0F89083E2E0E8
:105A0300C398500279E8EE242E125A39700CEE2412
:105A13002B125A39700479F5800BE9700512351E83
:105A2300E9F9E96007EEFAEFFB123602025E3F3452
:105A3300FFF509EE240DF582E43FF583E022C082F1
:105A4300C0838A828B83740DF0122AC8025B85C0DF
:105A530082C0838A828B83E4F0A3F0EA2430125657
:105A63008654049083DC7012E0F8901D4FE0C398D5
:105A7300401279F1123602025B85E0F8901D4EE088
:105A8300C39850EE901DA7E0F912209680E974F6B2
:105A9300120E4EE9FE244CFAE43400FB12208AEA8B
:105AA3004B6012EE8A828B83A3A3A3A3F0EA244C58
:105AB30012639E80047A007B000271FDC082C08362
:105AC300901D63748AF0A37435F0A374BAF0A374C1
:105AD30035F0A37490F0A37435F0A37496F0A37417
:105AE30035F0A374B4F0A37435F0A374A8F0A374D1
:105AF30035F0A374A2F0A37435F0A374C0F0A374BB
:105B030035F0A374C6F0A37435F0A374CCF0A3747A
